{
	"First test/05-DataStorage.sol": {
		"Variables": {
			"abi": [
				{
					"inputs": [],
					"name": "bar",
					"outputs": [
						{
							"internalType": "uint256",
							"name": "",
							"type": "uint256"
						}
					],
					"stateMutability": "pure",
					"type": "function"
				},
				{
					"inputs": [],
					"name": "daysUint",
					"outputs": [
						{
							"internalType": "uint256",
							"name": "",
							"type": "uint256"
						}
					],
					"stateMutability": "pure",
					"type": "function"
				},
				{
					"inputs": [],
					"name": "etherUint",
					"outputs": [
						{
							"internalType": "uint256",
							"name": "",
							"type": "uint256"
						}
					],
					"stateMutability": "pure",
					"type": "function"
				},
				{
					"inputs": [],
					"name": "foo",
					"outputs": [],
					"stateMutability": "nonpayable",
					"type": "function"
				},
				{
					"inputs": [],
					"name": "global",
					"outputs": [
						{
							"internalType": "address",
							"name": "",
							"type": "address"
						},
						{
							"internalType": "uint256",
							"name": "",
							"type": "uint256"
						},
						{
							"internalType": "bytes",
							"name": "",
							"type": "bytes"
						},
						{
							"internalType": "uint256",
							"name": "",
							"type": "uint256"
						}
					],
					"stateMutability": "view",
					"type": "function"
				},
				{
					"inputs": [],
					"name": "gweiUint",
					"outputs": [
						{
							"internalType": "uint256",
							"name": "",
							"type": "uint256"
						}
					],
					"stateMutability": "pure",
					"type": "function"
				},
				{
					"inputs": [],
					"name": "hoursUint",
					"outputs": [
						{
							"internalType": "uint256",
							"name": "",
							"type": "uint256"
						}
					],
					"stateMutability": "pure",
					"type": "function"
				},
				{
					"inputs": [],
					"name": "minutesUnit",
					"outputs": [
						{
							"internalType": "uint256",
							"name": "",
							"type": "uint256"
						}
					],
					"stateMutability": "pure",
					"type": "function"
				},
				{
					"inputs": [],
					"name": "secondsUint",
					"outputs": [
						{
							"internalType": "uint256",
							"name": "",
							"type": "uint256"
						}
					],
					"stateMutability": "pure",
					"type": "function"
				},
				{
					"inputs": [],
					"name": "weeksUint",
					"outputs": [
						{
							"internalType": "uint256",
							"name": "",
							"type": "uint256"
						}
					],
					"stateMutability": "pure",
					"type": "function"
				},
				{
					"inputs": [],
					"name": "weiUint",
					"outputs": [
						{
							"internalType": "uint256",
							"name": "",
							"type": "uint256"
						}
					],
					"stateMutability": "pure",
					"type": "function"
				},
				{
					"inputs": [],
					"name": "x",
					"outputs": [
						{
							"internalType": "uint256",
							"name": "",
							"type": "uint256"
						}
					],
					"stateMutability": "view",
					"type": "function"
				},
				{
					"inputs": [],
					"name": "y",
					"outputs": [
						{
							"internalType": "uint256",
							"name": "",
							"type": "uint256"
						}
					],
					"stateMutability": "view",
					"type": "function"
				},
				{
					"inputs": [],
					"name": "z",
					"outputs": [
						{
							"internalType": "string",
							"name": "",
							"type": "string"
						}
					],
					"stateMutability": "view",
					"type": "function"
				}
			],
			"devdoc": {
				"kind": "dev",
				"methods": {},
				"version": 1
			},
			"evm": {
				"assembly": "    /* \"First test/05-DataStorage.sol\":1066:3773  contract Variables{... */\n  mstore(0x40, 0x80)\n    /* \"First test/05-DataStorage.sol\":1207:1208  1 */\n  0x01\n    /* \"First test/05-DataStorage.sol\":1191:1208  uint public x = 1 */\n  0x00\n  sstore\n    /* \"First test/05-DataStorage.sol\":1066:3773  contract Variables{... */\n  callvalue\n  dup1\n  iszero\n  tag_1\n  jumpi\n  0x00\n  dup1\n  revert\ntag_1:\n  pop\n  dataSize(sub_0)\n  dup1\n  dataOffset(sub_0)\n  0x00\n  codecopy\n  0x00\n  return\nstop\n\nsub_0: assembly {\n        /* \"First test/05-DataStorage.sol\":1066:3773  contract Variables{... */\n      mstore(0x40, 0x80)\n      callvalue\n      dup1\n      iszero\n      tag_1\n      jumpi\n      0x00\n      dup1\n      revert\n    tag_1:\n      pop\n      jumpi(tag_2, lt(calldatasize, 0x04))\n      shr(0xe0, calldataload(0x00))\n      dup1\n      0xa05f9906\n      gt\n      tag_17\n      jumpi\n      dup1\n      0xc5d7802e\n      gt\n      tag_18\n      jumpi\n      dup1\n      0xc5d7802e\n      eq\n      tag_13\n      jumpi\n      dup1\n      0xcc97e238\n      eq\n      tag_14\n      jumpi\n      dup1\n      0xf1e6d198\n      eq\n      tag_15\n      jumpi\n      dup1\n      0xfebb0f7e\n      eq\n      tag_16\n      jumpi\n      jump(tag_2)\n    tag_18:\n      dup1\n      0xa05f9906\n      eq\n      tag_10\n      jumpi\n      dup1\n      0xa56dfe4a\n      eq\n      tag_11\n      jumpi\n      dup1\n      0xc2985578\n      eq\n      tag_12\n      jumpi\n      jump(tag_2)\n    tag_17:\n      dup1\n      0x2da422fe\n      gt\n      tag_19\n      jumpi\n      dup1\n      0x2da422fe\n      eq\n      tag_6\n      jumpi\n      dup1\n      0x39ab09a7\n      eq\n      tag_7\n      jumpi\n      dup1\n      0x556b90b2\n      eq\n      tag_8\n      jumpi\n      dup1\n      0x6ee41262\n      eq\n      tag_9\n      jumpi\n      jump(tag_2)\n    tag_19:\n      dup1\n      0x0c55699c\n      eq\n      tag_3\n      jumpi\n      dup1\n      0x22d05d60\n      eq\n      tag_4\n      jumpi\n      dup1\n      0x23004238\n      eq\n      tag_5\n      jumpi\n    tag_2:\n      0x00\n      dup1\n      revert\n        /* \"First test/05-DataStorage.sol\":1191:1208  uint public x = 1 */\n    tag_3:\n      tag_20\n      tag_21\n      jump\t// in\n    tag_20:\n      mload(0x40)\n      tag_22\n      swap2\n      swap1\n      tag_23\n      jump\t// in\n    tag_22:\n      mload(0x40)\n      dup1\n      swap2\n      sub\n      swap1\n      return\n        /* \"First test/05-DataStorage.sol\":2671:2851  function etherUint() external pure returns(uint){... */\n    tag_4:\n      tag_24\n      tag_25\n      jump\t// in\n    tag_24:\n      mload(0x40)\n      tag_26\n      swap2\n      swap1\n      tag_23\n      jump\t// in\n    tag_26:\n      mload(0x40)\n      dup1\n      swap2\n      sub\n      swap1\n      return\n        /* \"First test/05-DataStorage.sol\":3240:3411  function hoursUint() external pure returns(uint){... */\n    tag_5:\n      tag_27\n      tag_28\n      jump\t// in\n    tag_27:\n      mload(0x40)\n      tag_29\n      swap2\n      swap1\n      tag_23\n      jump\t// in\n    tag_29:\n      mload(0x40)\n      dup1\n      swap2\n      sub\n      swap1\n      return\n        /* \"First test/05-DataStorage.sol\":2328:2481  function weiUint() external pure returns(uint){... */\n    tag_6:\n      tag_30\n      tag_31\n      jump\t// in\n    tag_30:\n      mload(0x40)\n      tag_32\n      swap2\n      swap1\n      tag_23\n      jump\t// in\n    tag_32:\n      mload(0x40)\n      dup1\n      swap2\n      sub\n      swap1\n      return\n        /* \"First test/05-DataStorage.sol\":2493:2659  function gweiUint() external pure returns(uint){... */\n    tag_7:\n      tag_33\n      tag_34\n      jump\t// in\n    tag_33:\n      mload(0x40)\n      tag_35\n      swap2\n      swap1\n      tag_23\n      jump\t// in\n    tag_35:\n      mload(0x40)\n      dup1\n      swap2\n      sub\n      swap1\n      return\n        /* \"First test/05-DataStorage.sol\":3601:3770  function weeksUint() external pure returns(uint){... */\n    tag_8:\n      tag_36\n      tag_37\n      jump\t// in\n    tag_36:\n      mload(0x40)\n      tag_38\n      swap2\n      swap1\n      tag_23\n      jump\t// in\n    tag_38:\n      mload(0x40)\n      dup1\n      swap2\n      sub\n      swap1\n      return\n        /* \"First test/05-DataStorage.sol\":2909:3039  function secondsUint() external pure returns(uint){... */\n    tag_9:\n      tag_39\n      tag_40\n      jump\t// in\n    tag_39:\n      mload(0x40)\n      tag_41\n      swap2\n      swap1\n      tag_23\n      jump\t// in\n    tag_41:\n      mload(0x40)\n      dup1\n      swap2\n      sub\n      swap1\n      return\n        /* \"First test/05-DataStorage.sol\":1844:2256  function global() external view returns(address,uint,bytes memory,uint){... */\n    tag_10:\n      tag_42\n      tag_43\n      jump\t// in\n    tag_42:\n      mload(0x40)\n      tag_44\n      swap5\n      swap4\n      swap3\n      swap2\n      swap1\n      tag_45\n      jump\t// in\n    tag_44:\n      mload(0x40)\n      dup1\n      swap2\n      sub\n      swap1\n      return\n        /* \"First test/05-DataStorage.sol\":1219:1232  uint public y */\n    tag_11:\n      tag_46\n      tag_47\n      jump\t// in\n    tag_46:\n      mload(0x40)\n      tag_48\n      swap2\n      swap1\n      tag_23\n      jump\t// in\n    tag_48:\n      mload(0x40)\n      dup1\n      swap2\n      sub\n      swap1\n      return\n        /* \"First test/05-DataStorage.sol\":1271:1421  function foo() external{... */\n    tag_12:\n      tag_49\n      tag_50\n      jump\t// in\n    tag_49:\n      stop\n        /* \"First test/05-DataStorage.sol\":1243:1258  string public z */\n    tag_13:\n      tag_51\n      tag_52\n      jump\t// in\n    tag_51:\n      mload(0x40)\n      tag_53\n      swap2\n      swap1\n      tag_54\n      jump\t// in\n    tag_53:\n      mload(0x40)\n      dup1\n      swap2\n      sub\n      swap1\n      return\n        /* \"First test/05-DataStorage.sol\":3423:3589  function daysUint() external pure returns(uint){... */\n    tag_14:\n      tag_55\n      tag_56\n      jump\t// in\n    tag_55:\n      mload(0x40)\n      tag_57\n      swap2\n      swap1\n      tag_23\n      jump\t// in\n    tag_57:\n      mload(0x40)\n      dup1\n      swap2\n      sub\n      swap1\n      return\n        /* \"First test/05-DataStorage.sol\":3051:3228  function minutesUnit() external pure returns(uint){... */\n    tag_15:\n      tag_58\n      tag_59\n      jump\t// in\n    tag_58:\n      mload(0x40)\n      tag_60\n      swap2\n      swap1\n      tag_23\n      jump\t// in\n    tag_60:\n      mload(0x40)\n      dup1\n      swap2\n      sub\n      swap1\n      return\n        /* \"First test/05-DataStorage.sol\":1547:1710  function bar() external pure returns(uint){... */\n    tag_16:\n      tag_61\n      tag_62\n      jump\t// in\n    tag_61:\n      mload(0x40)\n      tag_63\n      swap2\n      swap1\n      tag_23\n      jump\t// in\n    tag_63:\n      mload(0x40)\n      dup1\n      swap2\n      sub\n      swap1\n      return\n        /* \"First test/05-DataStorage.sol\":1191:1208  uint public x = 1 */\n    tag_21:\n      sload(0x00)\n      dup2\n      jump\t// out\n        /* \"First test/05-DataStorage.sol\":2671:2851  function etherUint() external pure returns(uint){... */\n    tag_25:\n        /* \"First test/05-DataStorage.sol\":2714:2718  uint */\n      0x00\n        /* \"First test/05-DataStorage.sol\":2752:2756  1e18 */\n      0x0de0b6b3a7640000\n        /* \"First test/05-DataStorage.sol\":2741:2748  1 ether */\n      dup1\n        /* \"First test/05-DataStorage.sol\":2741:2756  1 ether == 1e18 */\n      eq\n        /* \"First test/05-DataStorage.sol\":2734:2757  assert(1 ether == 1e18) */\n      tag_65\n      jumpi\n      tag_66\n      tag_67\n      jump\t// in\n    tag_66:\n    tag_65:\n        /* \"First test/05-DataStorage.sol\":2790:2809  1000000000000000000 */\n      0x0de0b6b3a7640000\n        /* \"First test/05-DataStorage.sol\":2779:2786  1 ether */\n      dup1\n        /* \"First test/05-DataStorage.sol\":2779:2809  1 ether == 1000000000000000000 */\n      eq\n        /* \"First test/05-DataStorage.sol\":2772:2810  assert(1 ether == 1000000000000000000) */\n      tag_68\n      jumpi\n      tag_69\n      tag_67\n      jump\t// in\n    tag_69:\n    tag_68:\n        /* \"First test/05-DataStorage.sol\":2832:2839  1 ether */\n      0x0de0b6b3a7640000\n        /* \"First test/05-DataStorage.sol\":2825:2839  return 1 ether */\n      swap1\n      pop\n        /* \"First test/05-DataStorage.sol\":2671:2851  function etherUint() external pure returns(uint){... */\n      swap1\n      jump\t// out\n        /* \"First test/05-DataStorage.sol\":3240:3411  function hoursUint() external pure returns(uint){... */\n    tag_28:\n        /* \"First test/05-DataStorage.sol\":3283:3287  uint */\n      0x00\n        /* \"First test/05-DataStorage.sol\":3321:3325  3600 */\n      0x0e10\n        /* \"First test/05-DataStorage.sol\":3310:3317  1 hours */\n      dup1\n        /* \"First test/05-DataStorage.sol\":3310:3325  1 hours == 3600 */\n      eq\n        /* \"First test/05-DataStorage.sol\":3303:3326  assert(1 hours == 3600) */\n      tag_71\n      jumpi\n      tag_72\n      tag_67\n      jump\t// in\n    tag_72:\n    tag_71:\n        /* \"First test/05-DataStorage.sol\":3359:3369  60 minutes */\n      0x0e10\n        /* \"First test/05-DataStorage.sol\":3348:3355  1 hours */\n      dup1\n        /* \"First test/05-DataStorage.sol\":3348:3369  1 hours == 60 minutes */\n      eq\n        /* \"First test/05-DataStorage.sol\":3341:3370  assert(1 hours == 60 minutes) */\n      tag_73\n      jumpi\n      tag_74\n      tag_67\n      jump\t// in\n    tag_74:\n    tag_73:\n        /* \"First test/05-DataStorage.sol\":3392:3399  1 hours */\n      0x0e10\n        /* \"First test/05-DataStorage.sol\":3385:3399  return 1 hours */\n      swap1\n      pop\n        /* \"First test/05-DataStorage.sol\":3240:3411  function hoursUint() external pure returns(uint){... */\n      swap1\n      jump\t// out\n        /* \"First test/05-DataStorage.sol\":2328:2481  function weiUint() external pure returns(uint){... */\n    tag_31:\n        /* \"First test/05-DataStorage.sol\":2369:2373  uint */\n      0x00\n        /* \"First test/05-DataStorage.sol\":2405:2408  1e0 */\n      0x01\n        /* \"First test/05-DataStorage.sol\":2396:2401  1 wei */\n      dup1\n        /* \"First test/05-DataStorage.sol\":2396:2408  1 wei == 1e0 */\n      eq\n        /* \"First test/05-DataStorage.sol\":2389:2409  assert(1 wei == 1e0) */\n      tag_76\n      jumpi\n      tag_77\n      tag_67\n      jump\t// in\n    tag_77:\n    tag_76:\n        /* \"First test/05-DataStorage.sol\":2440:2441  1 */\n      0x01\n        /* \"First test/05-DataStorage.sol\":2431:2436  1 wei */\n      dup1\n        /* \"First test/05-DataStorage.sol\":2431:2441  1 wei == 1 */\n      eq\n        /* \"First test/05-DataStorage.sol\":2424:2442  assert(1 wei == 1) */\n      tag_78\n      jumpi\n      tag_79\n      tag_67\n      jump\t// in\n    tag_79:\n    tag_78:\n        /* \"First test/05-DataStorage.sol\":2464:2469  1 wei */\n      0x01\n        /* \"First test/05-DataStorage.sol\":2457:2469  return 1 wei */\n      swap1\n      pop\n        /* \"First test/05-DataStorage.sol\":2328:2481  function weiUint() external pure returns(uint){... */\n      swap1\n      jump\t// out\n        /* \"First test/05-DataStorage.sol\":2493:2659  function gweiUint() external pure returns(uint){... */\n    tag_34:\n        /* \"First test/05-DataStorage.sol\":2535:2539  uint */\n      0x00\n        /* \"First test/05-DataStorage.sol\":2572:2575  1e9 */\n      0x3b9aca00\n        /* \"First test/05-DataStorage.sol\":2562:2568  1 gwei */\n      dup1\n        /* \"First test/05-DataStorage.sol\":2562:2575  1 gwei == 1e9 */\n      eq\n        /* \"First test/05-DataStorage.sol\":2555:2576  assert(1 gwei == 1e9) */\n      tag_81\n      jumpi\n      tag_82\n      tag_67\n      jump\t// in\n    tag_82:\n    tag_81:\n        /* \"First test/05-DataStorage.sol\":2608:2618  1000000000 */\n      0x3b9aca00\n        /* \"First test/05-DataStorage.sol\":2598:2604  1 gwei */\n      dup1\n        /* \"First test/05-DataStorage.sol\":2598:2618  1 gwei == 1000000000 */\n      eq\n        /* \"First test/05-DataStorage.sol\":2591:2619  assert(1 gwei == 1000000000) */\n      tag_83\n      jumpi\n      tag_84\n      tag_67\n      jump\t// in\n    tag_84:\n    tag_83:\n        /* \"First test/05-DataStorage.sol\":2641:2647  1 gwei */\n      0x3b9aca00\n        /* \"First test/05-DataStorage.sol\":2634:2647  return 1 gwei */\n      swap1\n      pop\n        /* \"First test/05-DataStorage.sol\":2493:2659  function gweiUint() external pure returns(uint){... */\n      swap1\n      jump\t// out\n        /* \"First test/05-DataStorage.sol\":3601:3770  function weeksUint() external pure returns(uint){... */\n    tag_37:\n        /* \"First test/05-DataStorage.sol\":3644:3648  uint */\n      0x00\n        /* \"First test/05-DataStorage.sol\":3682:3688  604800 */\n      0x093a80\n        /* \"First test/05-DataStorage.sol\":3671:3678  1 weeks */\n      dup1\n        /* \"First test/05-DataStorage.sol\":3671:3688  1 weeks == 604800 */\n      eq\n        /* \"First test/05-DataStorage.sol\":3664:3689  assert(1 weeks == 604800) */\n      tag_86\n      jumpi\n      tag_87\n      tag_67\n      jump\t// in\n    tag_87:\n    tag_86:\n        /* \"First test/05-DataStorage.sol\":3722:3728  7 days */\n      0x093a80\n        /* \"First test/05-DataStorage.sol\":3711:3718  1 weeks */\n      dup1\n        /* \"First test/05-DataStorage.sol\":3711:3728  1 weeks == 7 days */\n      eq\n        /* \"First test/05-DataStorage.sol\":3704:3729  assert(1 weeks == 7 days) */\n      tag_88\n      jumpi\n      tag_89\n      tag_67\n      jump\t// in\n    tag_89:\n    tag_88:\n        /* \"First test/05-DataStorage.sol\":3751:3758  1 weeks */\n      0x093a80\n        /* \"First test/05-DataStorage.sol\":3744:3758  return 1 weeks */\n      swap1\n      pop\n        /* \"First test/05-DataStorage.sol\":3601:3770  function weeksUint() external pure returns(uint){... */\n      swap1\n      jump\t// out\n        /* \"First test/05-DataStorage.sol\":2909:3039  function secondsUint() external pure returns(uint){... */\n    tag_40:\n        /* \"First test/05-DataStorage.sol\":2954:2958  uint */\n      0x00\n        /* \"First test/05-DataStorage.sol\":2994:2995  1 */\n      0x01\n        /* \"First test/05-DataStorage.sol\":2981:2990  1 seconds */\n      dup1\n        /* \"First test/05-DataStorage.sol\":2981:2995  1 seconds == 1 */\n      eq\n        /* \"First test/05-DataStorage.sol\":2974:2996  assert(1 seconds == 1) */\n      tag_91\n      jumpi\n      tag_92\n      tag_67\n      jump\t// in\n    tag_92:\n    tag_91:\n        /* \"First test/05-DataStorage.sol\":3018:3027  1 seconds */\n      0x01\n        /* \"First test/05-DataStorage.sol\":3011:3027  return 1 seconds */\n      swap1\n      pop\n        /* \"First test/05-DataStorage.sol\":2909:3039  function secondsUint() external pure returns(uint){... */\n      swap1\n      jump\t// out\n        /* \"First test/05-DataStorage.sol\":1844:2256  function global() external view returns(address,uint,bytes memory,uint){... */\n    tag_43:\n        /* \"First test/05-DataStorage.sol\":1884:1891  address */\n      0x00\n        /* \"First test/05-DataStorage.sol\":1892:1896  uint */\n      dup1\n        /* \"First test/05-DataStorage.sol\":1897:1909  bytes memory */\n      0x60\n        /* \"First test/05-DataStorage.sol\":1910:1914  uint */\n      0x00\n        /* \"First test/05-DataStorage.sol\":1930:1944  address sender */\n      dup1\n        /* \"First test/05-DataStorage.sol\":1947:1957  msg.sender */\n      caller\n        /* \"First test/05-DataStorage.sol\":1930:1957  address sender = msg.sender */\n      swap1\n      pop\n        /* \"First test/05-DataStorage.sol\":2003:2016  uint blockNum */\n      0x00\n        /* \"First test/05-DataStorage.sol\":2019:2031  block.number */\n      number\n        /* \"First test/05-DataStorage.sol\":2003:2031  uint blockNum = block.number */\n      swap1\n      pop\n        /* \"First test/05-DataStorage.sol\":2069:2086  bytes memory data */\n      0x00\n        /* \"First test/05-DataStorage.sol\":2089:2097  msg.data */\n      dup1\n      calldatasize\n        /* \"First test/05-DataStorage.sol\":2069:2097  bytes memory data = msg.data */\n      dup1\n      dup1\n      0x1f\n      add\n      0x20\n      dup1\n      swap2\n      div\n      mul\n      0x20\n      add\n      mload(0x40)\n      swap1\n      dup2\n      add\n      0x40\n      mstore\n      dup1\n      swap4\n      swap3\n      swap2\n      swap1\n      dup2\n      dup2\n      mstore\n      0x20\n      add\n      dup4\n      dup4\n      dup1\n      dup3\n      dup5\n      calldatacopy\n      0x00\n      dup2\n      dup5\n      add\n      mstore\n      not(0x1f)\n      0x1f\n      dup3\n      add\n      and\n      swap1\n      pop\n      dup1\n      dup4\n      add\n      swap3\n      pop\n      pop\n      pop\n      pop\n      pop\n      pop\n      pop\n      swap1\n      pop\n        /* \"First test/05-DataStorage.sol\":2129:2142  uint blockGas */\n      0x00\n        /* \"First test/05-DataStorage.sol\":2145:2159  block.gaslimit */\n      gaslimit\n        /* \"First test/05-DataStorage.sol\":2129:2159  uint blockGas = block.gaslimit */\n      swap1\n      pop\n        /* \"First test/05-DataStorage.sol\":2214:2220  sender */\n      dup4\n        /* \"First test/05-DataStorage.sol\":2221:2229  blockNum */\n      dup4\n        /* \"First test/05-DataStorage.sol\":2230:2234  data */\n      dup4\n        /* \"First test/05-DataStorage.sol\":2235:2243  blockGas */\n      dup4\n        /* \"First test/05-DataStorage.sol\":2207:2244  return(sender,blockNum,data,blockGas) */\n      swap8\n      pop\n      swap8\n      pop\n      swap8\n      pop\n      swap8\n      pop\n      pop\n      pop\n      pop\n      pop\n        /* \"First test/05-DataStorage.sol\":1844:2256  function global() external view returns(address,uint,bytes memory,uint){... */\n      swap1\n      swap2\n      swap3\n      swap4\n      jump\t// out\n        /* \"First test/05-DataStorage.sol\":1219:1232  uint public y */\n    tag_47:\n      sload(0x01)\n      dup2\n      jump\t// out\n        /* \"First test/05-DataStorage.sol\":1271:1421  function foo() external{... */\n    tag_50:\n        /* \"First test/05-DataStorage.sol\":1367:1368  5 */\n      0x05\n        /* \"First test/05-DataStorage.sol\":1363:1364  x */\n      0x00\n        /* \"First test/05-DataStorage.sol\":1363:1368  x = 5 */\n      dup2\n      swap1\n      sstore\n      pop\n        /* \"First test/05-DataStorage.sol\":1387:1388  2 */\n      0x02\n        /* \"First test/05-DataStorage.sol\":1383:1384  y */\n      0x01\n        /* \"First test/05-DataStorage.sol\":1383:1388  y = 2 */\n      dup2\n      swap1\n      sstore\n      pop\n        /* \"First test/05-DataStorage.sol\":1403:1413  z = \"0xAA\" */\n      mload(0x40)\n      dup1\n      0x40\n      add\n      0x40\n      mstore\n      dup1\n      0x04\n      dup2\n      mstore\n      0x20\n      add\n      0x3078414100000000000000000000000000000000000000000000000000000000\n      dup2\n      mstore\n      pop\n        /* \"First test/05-DataStorage.sol\":1403:1404  z */\n      0x02\n        /* \"First test/05-DataStorage.sol\":1403:1413  z = \"0xAA\" */\n      swap1\n      dup2\n      tag_95\n      swap2\n      swap1\n      tag_96\n      jump\t// in\n    tag_95:\n      pop\n        /* \"First test/05-DataStorage.sol\":1271:1421  function foo() external{... */\n      jump\t// out\n        /* \"First test/05-DataStorage.sol\":1243:1258  string public z */\n    tag_52:\n      0x02\n      dup1\n      sload\n      tag_97\n      swap1\n      tag_98\n      jump\t// in\n    tag_97:\n      dup1\n      0x1f\n      add\n      0x20\n      dup1\n      swap2\n      div\n      mul\n      0x20\n      add\n      mload(0x40)\n      swap1\n      dup2\n      add\n      0x40\n      mstore\n      dup1\n      swap3\n      swap2\n      swap1\n      dup2\n      dup2\n      mstore\n      0x20\n      add\n      dup3\n      dup1\n      sload\n      tag_99\n      swap1\n      tag_98\n      jump\t// in\n    tag_99:\n      dup1\n      iszero\n      tag_100\n      jumpi\n      dup1\n      0x1f\n      lt\n      tag_101\n      jumpi\n      0x0100\n      dup1\n      dup4\n      sload\n      div\n      mul\n      dup4\n      mstore\n      swap2\n      0x20\n      add\n      swap2\n      jump(tag_100)\n    tag_101:\n      dup3\n      add\n      swap2\n      swap1\n      0x00\n      mstore\n      keccak256(0x00, 0x20)\n      swap1\n    tag_102:\n      dup2\n      sload\n      dup2\n      mstore\n      swap1\n      0x01\n      add\n      swap1\n      0x20\n      add\n      dup1\n      dup4\n      gt\n      tag_102\n      jumpi\n      dup3\n      swap1\n      sub\n      0x1f\n      and\n      dup3\n      add\n      swap2\n    tag_100:\n      pop\n      pop\n      pop\n      pop\n      pop\n      dup2\n      jump\t// out\n        /* \"First test/05-DataStorage.sol\":3423:3589  function daysUint() external pure returns(uint){... */\n    tag_56:\n        /* \"First test/05-DataStorage.sol\":3465:3469  uint */\n      0x00\n        /* \"First test/05-DataStorage.sol\":3502:3507  86400 */\n      0x015180\n        /* \"First test/05-DataStorage.sol\":3492:3498  1 days */\n      dup1\n        /* \"First test/05-DataStorage.sol\":3492:3507  1 days == 86400 */\n      eq\n        /* \"First test/05-DataStorage.sol\":3485:3508  assert(1 days == 86400) */\n      tag_104\n      jumpi\n      tag_105\n      tag_67\n      jump\t// in\n    tag_105:\n    tag_104:\n        /* \"First test/05-DataStorage.sol\":3540:3548  24 hours */\n      0x015180\n        /* \"First test/05-DataStorage.sol\":3530:3536  1 days */\n      dup1\n        /* \"First test/05-DataStorage.sol\":3530:3548  1 days == 24 hours */\n      eq\n        /* \"First test/05-DataStorage.sol\":3523:3549  assert(1 days == 24 hours) */\n      tag_106\n      jumpi\n      tag_107\n      tag_67\n      jump\t// in\n    tag_107:\n    tag_106:\n        /* \"First test/05-DataStorage.sol\":3571:3577  1 days */\n      0x015180\n        /* \"First test/05-DataStorage.sol\":3564:3577  return 1 days */\n      swap1\n      pop\n        /* \"First test/05-DataStorage.sol\":3423:3589  function daysUint() external pure returns(uint){... */\n      swap1\n      jump\t// out\n        /* \"First test/05-DataStorage.sol\":3051:3228  function minutesUnit() external pure returns(uint){... */\n    tag_59:\n        /* \"First test/05-DataStorage.sol\":3096:3100  uint */\n      0x00\n        /* \"First test/05-DataStorage.sol\":3136:3138  60 */\n      0x3c\n        /* \"First test/05-DataStorage.sol\":3123:3132  1 minutes */\n      dup1\n        /* \"First test/05-DataStorage.sol\":3123:3138  1 minutes == 60 */\n      eq\n        /* \"First test/05-DataStorage.sol\":3116:3139  assert(1 minutes == 60) */\n      tag_109\n      jumpi\n      tag_110\n      tag_67\n      jump\t// in\n    tag_110:\n    tag_109:\n        /* \"First test/05-DataStorage.sol\":3174:3184  60 seconds */\n      0x3c\n        /* \"First test/05-DataStorage.sol\":3161:3170  1 minutes */\n      dup1\n        /* \"First test/05-DataStorage.sol\":3161:3184  1 minutes == 60 seconds */\n      eq\n        /* \"First test/05-DataStorage.sol\":3154:3185  assert(1 minutes == 60 seconds) */\n      tag_111\n      jumpi\n      tag_112\n      tag_67\n      jump\t// in\n    tag_112:\n    tag_111:\n        /* \"First test/05-DataStorage.sol\":3207:3216  1 minutes */\n      0x3c\n        /* \"First test/05-DataStorage.sol\":3200:3216  return 1 minutes */\n      swap1\n      pop\n        /* \"First test/05-DataStorage.sol\":3051:3228  function minutesUnit() external pure returns(uint){... */\n      swap1\n      jump\t// out\n        /* \"First test/05-DataStorage.sol\":1547:1710  function bar() external pure returns(uint){... */\n    tag_62:\n        /* \"First test/05-DataStorage.sol\":1584:1588  uint */\n      0x00\n        /* \"First test/05-DataStorage.sol\":1604:1611  uint xx */\n      dup1\n        /* \"First test/05-DataStorage.sol\":1614:1615  1 */\n      0x01\n        /* \"First test/05-DataStorage.sol\":1604:1615  uint xx = 1 */\n      swap1\n      pop\n        /* \"First test/05-DataStorage.sol\":1630:1637  uint yy */\n      0x00\n        /* \"First test/05-DataStorage.sol\":1640:1641  3 */\n      0x03\n        /* \"First test/05-DataStorage.sol\":1630:1641  uint yy = 3 */\n      swap1\n      pop\n        /* \"First test/05-DataStorage.sol\":1656:1663  uint zz */\n      0x00\n        /* \"First test/05-DataStorage.sol\":1671:1673  yy */\n      dup2\n        /* \"First test/05-DataStorage.sol\":1666:1668  xx */\n      dup4\n        /* \"First test/05-DataStorage.sol\":1666:1673  xx + yy */\n      tag_114\n      swap2\n      swap1\n      tag_115\n      jump\t// in\n    tag_114:\n        /* \"First test/05-DataStorage.sol\":1656:1673  uint zz = xx + yy */\n      swap1\n      pop\n        /* \"First test/05-DataStorage.sol\":1695:1697  zz */\n      dup1\n        /* \"First test/05-DataStorage.sol\":1688:1698  return(zz) */\n      swap4\n      pop\n      pop\n      pop\n      pop\n        /* \"First test/05-DataStorage.sol\":1547:1710  function bar() external pure returns(uint){... */\n      swap1\n      jump\t// out\n        /* \"#utility.yul\":7:84   */\n    tag_116:\n        /* \"#utility.yul\":44:51   */\n      0x00\n        /* \"#utility.yul\":73:78   */\n      dup2\n        /* \"#utility.yul\":62:78   */\n      swap1\n      pop\n        /* \"#utility.yul\":7:84   */\n      swap2\n      swap1\n      pop\n      jump\t// out\n        /* \"#utility.yul\":90:208   */\n    tag_117:\n        /* \"#utility.yul\":177:201   */\n      tag_150\n        /* \"#utility.yul\":195:200   */\n      dup2\n        /* \"#utility.yul\":177:201   */\n      tag_116\n      jump\t// in\n    tag_150:\n        /* \"#utility.yul\":172:175   */\n      dup3\n        /* \"#utility.yul\":165:202   */\n      mstore\n        /* \"#utility.yul\":90:208   */\n      pop\n      pop\n      jump\t// out\n        /* \"#utility.yul\":214:436   */\n    tag_23:\n        /* \"#utility.yul\":307:311   */\n      0x00\n        /* \"#utility.yul\":345:347   */\n      0x20\n        /* \"#utility.yul\":334:343   */\n      dup3\n        /* \"#utility.yul\":330:348   */\n      add\n        /* \"#utility.yul\":322:348   */\n      swap1\n      pop\n        /* \"#utility.yul\":358:429   */\n      tag_152\n        /* \"#utility.yul\":426:427   */\n      0x00\n        /* \"#utility.yul\":415:424   */\n      dup4\n        /* \"#utility.yul\":411:428   */\n      add\n        /* \"#utility.yul\":402:408   */\n      dup5\n        /* \"#utility.yul\":358:429   */\n      tag_117\n      jump\t// in\n    tag_152:\n        /* \"#utility.yul\":214:436   */\n      swap3\n      swap2\n      pop\n      pop\n      jump\t// out\n        /* \"#utility.yul\":442:568   */\n    tag_118:\n        /* \"#utility.yul\":479:486   */\n      0x00\n        /* \"#utility.yul\":519:561   */\n      0xffffffffffffffffffffffffffffffffffffffff\n        /* \"#utility.yul\":512:517   */\n      dup3\n        /* \"#utility.yul\":508:562   */\n      and\n        /* \"#utility.yul\":497:562   */\n      swap1\n      pop\n        /* \"#utility.yul\":442:568   */\n      swap2\n      swap1\n      pop\n      jump\t// out\n        /* \"#utility.yul\":574:670   */\n    tag_119:\n        /* \"#utility.yul\":611:618   */\n      0x00\n        /* \"#utility.yul\":640:664   */\n      tag_155\n        /* \"#utility.yul\":658:663   */\n      dup3\n        /* \"#utility.yul\":640:664   */\n      tag_118\n      jump\t// in\n    tag_155:\n        /* \"#utility.yul\":629:664   */\n      swap1\n      pop\n        /* \"#utility.yul\":574:670   */\n      swap2\n      swap1\n      pop\n      jump\t// out\n        /* \"#utility.yul\":676:794   */\n    tag_120:\n        /* \"#utility.yul\":763:787   */\n      tag_157\n        /* \"#utility.yul\":781:786   */\n      dup2\n        /* \"#utility.yul\":763:787   */\n      tag_119\n      jump\t// in\n    tag_157:\n        /* \"#utility.yul\":758:761   */\n      dup3\n        /* \"#utility.yul\":751:788   */\n      mstore\n        /* \"#utility.yul\":676:794   */\n      pop\n      pop\n      jump\t// out\n        /* \"#utility.yul\":800:898   */\n    tag_121:\n        /* \"#utility.yul\":851:857   */\n      0x00\n        /* \"#utility.yul\":885:890   */\n      dup2\n        /* \"#utility.yul\":879:891   */\n      mload\n        /* \"#utility.yul\":869:891   */\n      swap1\n      pop\n        /* \"#utility.yul\":800:898   */\n      swap2\n      swap1\n      pop\n      jump\t// out\n        /* \"#utility.yul\":904:1072   */\n    tag_122:\n        /* \"#utility.yul\":987:998   */\n      0x00\n        /* \"#utility.yul\":1021:1027   */\n      dup3\n        /* \"#utility.yul\":1016:1019   */\n      dup3\n        /* \"#utility.yul\":1009:1028   */\n      mstore\n        /* \"#utility.yul\":1061:1065   */\n      0x20\n        /* \"#utility.yul\":1056:1059   */\n      dup3\n        /* \"#utility.yul\":1052:1066   */\n      add\n        /* \"#utility.yul\":1037:1066   */\n      swap1\n      pop\n        /* \"#utility.yul\":904:1072   */\n      swap3\n      swap2\n      pop\n      pop\n      jump\t// out\n        /* \"#utility.yul\":1078:1217   */\n    tag_123:\n        /* \"#utility.yul\":1167:1173   */\n      dup3\n        /* \"#utility.yul\":1162:1165   */\n      dup2\n        /* \"#utility.yul\":1157:1160   */\n      dup4\n        /* \"#utility.yul\":1151:1174   */\n      mcopy\n        /* \"#utility.yul\":1208:1209   */\n      0x00\n        /* \"#utility.yul\":1199:1205   */\n      dup4\n        /* \"#utility.yul\":1194:1197   */\n      dup4\n        /* \"#utility.yul\":1190:1206   */\n      add\n        /* \"#utility.yul\":1183:1210   */\n      mstore\n        /* \"#utility.yul\":1078:1217   */\n      pop\n      pop\n      pop\n      jump\t// out\n        /* \"#utility.yul\":1223:1325   */\n    tag_124:\n        /* \"#utility.yul\":1264:1270   */\n      0x00\n        /* \"#utility.yul\":1315:1317   */\n      0x1f\n        /* \"#utility.yul\":1311:1318   */\n      not\n        /* \"#utility.yul\":1306:1308   */\n      0x1f\n        /* \"#utility.yul\":1299:1304   */\n      dup4\n        /* \"#utility.yul\":1295:1309   */\n      add\n        /* \"#utility.yul\":1291:1319   */\n      and\n        /* \"#utility.yul\":1281:1319   */\n      swap1\n      pop\n        /* \"#utility.yul\":1223:1325   */\n      swap2\n      swap1\n      pop\n      jump\t// out\n        /* \"#utility.yul\":1331:1704   */\n    tag_125:\n        /* \"#utility.yul\":1417:1420   */\n      0x00\n        /* \"#utility.yul\":1445:1483   */\n      tag_163\n        /* \"#utility.yul\":1477:1482   */\n      dup3\n        /* \"#utility.yul\":1445:1483   */\n      tag_121\n      jump\t// in\n    tag_163:\n        /* \"#utility.yul\":1499:1569   */\n      tag_164\n        /* \"#utility.yul\":1562:1568   */\n      dup2\n        /* \"#utility.yul\":1557:1560   */\n      dup6\n        /* \"#utility.yul\":1499:1569   */\n      tag_122\n      jump\t// in\n    tag_164:\n        /* \"#utility.yul\":1492:1569   */\n      swap4\n      pop\n        /* \"#utility.yul\":1578:1643   */\n      tag_165\n        /* \"#utility.yul\":1636:1642   */\n      dup2\n        /* \"#utility.yul\":1631:1634   */\n      dup6\n        /* \"#utility.yul\":1624:1628   */\n      0x20\n        /* \"#utility.yul\":1617:1622   */\n      dup7\n        /* \"#utility.yul\":1613:1629   */\n      add\n        /* \"#utility.yul\":1578:1643   */\n      tag_123\n      jump\t// in\n    tag_165:\n        /* \"#utility.yul\":1668:1697   */\n      tag_166\n        /* \"#utility.yul\":1690:1696   */\n      dup2\n        /* \"#utility.yul\":1668:1697   */\n      tag_124\n      jump\t// in\n    tag_166:\n        /* \"#utility.yul\":1663:1666   */\n      dup5\n        /* \"#utility.yul\":1659:1698   */\n      add\n        /* \"#utility.yul\":1652:1698   */\n      swap2\n      pop\n        /* \"#utility.yul\":1421:1704   */\n      pop\n        /* \"#utility.yul\":1331:1704   */\n      swap3\n      swap2\n      pop\n      pop\n      jump\t// out\n        /* \"#utility.yul\":1710:2350   */\n    tag_45:\n        /* \"#utility.yul\":1905:1909   */\n      0x00\n        /* \"#utility.yul\":1943:1946   */\n      0x80\n        /* \"#utility.yul\":1932:1941   */\n      dup3\n        /* \"#utility.yul\":1928:1947   */\n      add\n        /* \"#utility.yul\":1920:1947   */\n      swap1\n      pop\n        /* \"#utility.yul\":1957:2028   */\n      tag_168\n        /* \"#utility.yul\":2025:2026   */\n      0x00\n        /* \"#utility.yul\":2014:2023   */\n      dup4\n        /* \"#utility.yul\":2010:2027   */\n      add\n        /* \"#utility.yul\":2001:2007   */\n      dup8\n        /* \"#utility.yul\":1957:2028   */\n      tag_120\n      jump\t// in\n    tag_168:\n        /* \"#utility.yul\":2038:2110   */\n      tag_169\n        /* \"#utility.yul\":2106:2108   */\n      0x20\n        /* \"#utility.yul\":2095:2104   */\n      dup4\n        /* \"#utility.yul\":2091:2109   */\n      add\n        /* \"#utility.yul\":2082:2088   */\n      dup7\n        /* \"#utility.yul\":2038:2110   */\n      tag_117\n      jump\t// in\n    tag_169:\n        /* \"#utility.yul\":2157:2166   */\n      dup2\n        /* \"#utility.yul\":2151:2155   */\n      dup2\n        /* \"#utility.yul\":2147:2167   */\n      sub\n        /* \"#utility.yul\":2142:2144   */\n      0x40\n        /* \"#utility.yul\":2131:2140   */\n      dup4\n        /* \"#utility.yul\":2127:2145   */\n      add\n        /* \"#utility.yul\":2120:2168   */\n      mstore\n        /* \"#utility.yul\":2185:2261   */\n      tag_170\n        /* \"#utility.yul\":2256:2260   */\n      dup2\n        /* \"#utility.yul\":2247:2253   */\n      dup6\n        /* \"#utility.yul\":2185:2261   */\n      tag_125\n      jump\t// in\n    tag_170:\n        /* \"#utility.yul\":2177:2261   */\n      swap1\n      pop\n        /* \"#utility.yul\":2271:2343   */\n      tag_171\n        /* \"#utility.yul\":2339:2341   */\n      0x60\n        /* \"#utility.yul\":2328:2337   */\n      dup4\n        /* \"#utility.yul\":2324:2342   */\n      add\n        /* \"#utility.yul\":2315:2321   */\n      dup5\n        /* \"#utility.yul\":2271:2343   */\n      tag_117\n      jump\t// in\n    tag_171:\n        /* \"#utility.yul\":1710:2350   */\n      swap6\n      swap5\n      pop\n      pop\n      pop\n      pop\n      pop\n      jump\t// out\n        /* \"#utility.yul\":2356:2455   */\n    tag_126:\n        /* \"#utility.yul\":2408:2414   */\n      0x00\n        /* \"#utility.yul\":2442:2447   */\n      dup2\n        /* \"#utility.yul\":2436:2448   */\n      mload\n        /* \"#utility.yul\":2426:2448   */\n      swap1\n      pop\n        /* \"#utility.yul\":2356:2455   */\n      swap2\n      swap1\n      pop\n      jump\t// out\n        /* \"#utility.yul\":2461:2630   */\n    tag_127:\n        /* \"#utility.yul\":2545:2556   */\n      0x00\n        /* \"#utility.yul\":2579:2585   */\n      dup3\n        /* \"#utility.yul\":2574:2577   */\n      dup3\n        /* \"#utility.yul\":2567:2586   */\n      mstore\n        /* \"#utility.yul\":2619:2623   */\n      0x20\n        /* \"#utility.yul\":2614:2617   */\n      dup3\n        /* \"#utility.yul\":2610:2624   */\n      add\n        /* \"#utility.yul\":2595:2624   */\n      swap1\n      pop\n        /* \"#utility.yul\":2461:2630   */\n      swap3\n      swap2\n      pop\n      pop\n      jump\t// out\n        /* \"#utility.yul\":2636:3013   */\n    tag_128:\n        /* \"#utility.yul\":2724:2727   */\n      0x00\n        /* \"#utility.yul\":2752:2791   */\n      tag_175\n        /* \"#utility.yul\":2785:2790   */\n      dup3\n        /* \"#utility.yul\":2752:2791   */\n      tag_126\n      jump\t// in\n    tag_175:\n        /* \"#utility.yul\":2807:2878   */\n      tag_176\n        /* \"#utility.yul\":2871:2877   */\n      dup2\n        /* \"#utility.yul\":2866:2869   */\n      dup6\n        /* \"#utility.yul\":2807:2878   */\n      tag_127\n      jump\t// in\n    tag_176:\n        /* \"#utility.yul\":2800:2878   */\n      swap4\n      pop\n        /* \"#utility.yul\":2887:2952   */\n      tag_177\n        /* \"#utility.yul\":2945:2951   */\n      dup2\n        /* \"#utility.yul\":2940:2943   */\n      dup6\n        /* \"#utility.yul\":2933:2937   */\n      0x20\n        /* \"#utility.yul\":2926:2931   */\n      dup7\n        /* \"#utility.yul\":2922:2938   */\n      add\n        /* \"#utility.yul\":2887:2952   */\n      tag_123\n      jump\t// in\n    tag_177:\n        /* \"#utility.yul\":2977:3006   */\n      tag_178\n        /* \"#utility.yul\":2999:3005   */\n      dup2\n        /* \"#utility.yul\":2977:3006   */\n      tag_124\n      jump\t// in\n    tag_178:\n        /* \"#utility.yul\":2972:2975   */\n      dup5\n        /* \"#utility.yul\":2968:3007   */\n      add\n        /* \"#utility.yul\":2961:3007   */\n      swap2\n      pop\n        /* \"#utility.yul\":2728:3013   */\n      pop\n        /* \"#utility.yul\":2636:3013   */\n      swap3\n      swap2\n      pop\n      pop\n      jump\t// out\n        /* \"#utility.yul\":3019:3332   */\n    tag_54:\n        /* \"#utility.yul\":3132:3136   */\n      0x00\n        /* \"#utility.yul\":3170:3172   */\n      0x20\n        /* \"#utility.yul\":3159:3168   */\n      dup3\n        /* \"#utility.yul\":3155:3173   */\n      add\n        /* \"#utility.yul\":3147:3173   */\n      swap1\n      pop\n        /* \"#utility.yul\":3219:3228   */\n      dup2\n        /* \"#utility.yul\":3213:3217   */\n      dup2\n        /* \"#utility.yul\":3209:3229   */\n      sub\n        /* \"#utility.yul\":3205:3206   */\n      0x00\n        /* \"#utility.yul\":3194:3203   */\n      dup4\n        /* \"#utility.yul\":3190:3207   */\n      add\n        /* \"#utility.yul\":3183:3230   */\n      mstore\n        /* \"#utility.yul\":3247:3325   */\n      tag_180\n        /* \"#utility.yul\":3320:3324   */\n      dup2\n        /* \"#utility.yul\":3311:3317   */\n      dup5\n        /* \"#utility.yul\":3247:3325   */\n      tag_128\n      jump\t// in\n    tag_180:\n        /* \"#utility.yul\":3239:3325   */\n      swap1\n      pop\n        /* \"#utility.yul\":3019:3332   */\n      swap3\n      swap2\n      pop\n      pop\n      jump\t// out\n        /* \"#utility.yul\":3338:3518   */\n    tag_67:\n        /* \"#utility.yul\":3386:3463   */\n      0x4e487b7100000000000000000000000000000000000000000000000000000000\n        /* \"#utility.yul\":3383:3384   */\n      0x00\n        /* \"#utility.yul\":3376:3464   */\n      mstore\n        /* \"#utility.yul\":3483:3487   */\n      0x01\n        /* \"#utility.yul\":3480:3481   */\n      0x04\n        /* \"#utility.yul\":3473:3488   */\n      mstore\n        /* \"#utility.yul\":3507:3511   */\n      0x24\n        /* \"#utility.yul\":3504:3505   */\n      0x00\n        /* \"#utility.yul\":3497:3512   */\n      revert\n        /* \"#utility.yul\":3524:3704   */\n    tag_129:\n        /* \"#utility.yul\":3572:3649   */\n      0x4e487b7100000000000000000000000000000000000000000000000000000000\n        /* \"#utility.yul\":3569:3570   */\n      0x00\n        /* \"#utility.yul\":3562:3650   */\n      mstore\n        /* \"#utility.yul\":3669:3673   */\n      0x41\n        /* \"#utility.yul\":3666:3667   */\n      0x04\n        /* \"#utility.yul\":3659:3674   */\n      mstore\n        /* \"#utility.yul\":3693:3697   */\n      0x24\n        /* \"#utility.yul\":3690:3691   */\n      0x00\n        /* \"#utility.yul\":3683:3698   */\n      revert\n        /* \"#utility.yul\":3710:3890   */\n    tag_130:\n        /* \"#utility.yul\":3758:3835   */\n      0x4e487b7100000000000000000000000000000000000000000000000000000000\n        /* \"#utility.yul\":3755:3756   */\n      0x00\n        /* \"#utility.yul\":3748:3836   */\n      mstore\n        /* \"#utility.yul\":3855:3859   */\n      0x22\n        /* \"#utility.yul\":3852:3853   */\n      0x04\n        /* \"#utility.yul\":3845:3860   */\n      mstore\n        /* \"#utility.yul\":3879:3883   */\n      0x24\n        /* \"#utility.yul\":3876:3877   */\n      0x00\n        /* \"#utility.yul\":3869:3884   */\n      revert\n        /* \"#utility.yul\":3896:4216   */\n    tag_98:\n        /* \"#utility.yul\":3940:3946   */\n      0x00\n        /* \"#utility.yul\":3977:3978   */\n      0x02\n        /* \"#utility.yul\":3971:3975   */\n      dup3\n        /* \"#utility.yul\":3967:3979   */\n      div\n        /* \"#utility.yul\":3957:3979   */\n      swap1\n      pop\n        /* \"#utility.yul\":4024:4025   */\n      0x01\n        /* \"#utility.yul\":4018:4022   */\n      dup3\n        /* \"#utility.yul\":4014:4026   */\n      and\n        /* \"#utility.yul\":4045:4063   */\n      dup1\n        /* \"#utility.yul\":4035:4116   */\n      tag_185\n      jumpi\n        /* \"#utility.yul\":4101:4105   */\n      0x7f\n        /* \"#utility.yul\":4093:4099   */\n      dup3\n        /* \"#utility.yul\":4089:4106   */\n      and\n        /* \"#utility.yul\":4079:4106   */\n      swap2\n      pop\n        /* \"#utility.yul\":4035:4116   */\n    tag_185:\n        /* \"#utility.yul\":4163:4165   */\n      0x20\n        /* \"#utility.yul\":4155:4161   */\n      dup3\n        /* \"#utility.yul\":4152:4166   */\n      lt\n        /* \"#utility.yul\":4132:4150   */\n      dup2\n        /* \"#utility.yul\":4129:4167   */\n      sub\n        /* \"#utility.yul\":4126:4210   */\n      tag_186\n      jumpi\n        /* \"#utility.yul\":4182:4200   */\n      tag_187\n      tag_130\n      jump\t// in\n    tag_187:\n        /* \"#utility.yul\":4126:4210   */\n    tag_186:\n        /* \"#utility.yul\":3947:4216   */\n      pop\n        /* \"#utility.yul\":3896:4216   */\n      swap2\n      swap1\n      pop\n      jump\t// out\n        /* \"#utility.yul\":4222:4363   */\n    tag_131:\n        /* \"#utility.yul\":4271:4275   */\n      0x00\n        /* \"#utility.yul\":4294:4297   */\n      dup2\n        /* \"#utility.yul\":4286:4297   */\n      swap1\n      pop\n        /* \"#utility.yul\":4317:4320   */\n      dup2\n        /* \"#utility.yul\":4314:4315   */\n      0x00\n        /* \"#utility.yul\":4307:4321   */\n      mstore\n        /* \"#utility.yul\":4351:4355   */\n      0x20\n        /* \"#utility.yul\":4348:4349   */\n      0x00\n        /* \"#utility.yul\":4338:4356   */\n      keccak256\n        /* \"#utility.yul\":4330:4356   */\n      swap1\n      pop\n        /* \"#utility.yul\":4222:4363   */\n      swap2\n      swap1\n      pop\n      jump\t// out\n        /* \"#utility.yul\":4369:4462   */\n    tag_132:\n        /* \"#utility.yul\":4406:4412   */\n      0x00\n        /* \"#utility.yul\":4453:4455   */\n      0x20\n        /* \"#utility.yul\":4448:4450   */\n      0x1f\n        /* \"#utility.yul\":4441:4446   */\n      dup4\n        /* \"#utility.yul\":4437:4451   */\n      add\n        /* \"#utility.yul\":4433:4456   */\n      div\n        /* \"#utility.yul\":4423:4456   */\n      swap1\n      pop\n        /* \"#utility.yul\":4369:4462   */\n      swap2\n      swap1\n      pop\n      jump\t// out\n        /* \"#utility.yul\":4468:4575   */\n    tag_133:\n        /* \"#utility.yul\":4512:4520   */\n      0x00\n        /* \"#utility.yul\":4562:4567   */\n      dup3\n        /* \"#utility.yul\":4556:4560   */\n      dup3\n        /* \"#utility.yul\":4552:4568   */\n      shl\n        /* \"#utility.yul\":4531:4568   */\n      swap1\n      pop\n        /* \"#utility.yul\":4468:4575   */\n      swap3\n      swap2\n      pop\n      pop\n      jump\t// out\n        /* \"#utility.yul\":4581:4974   */\n    tag_134:\n        /* \"#utility.yul\":4650:4656   */\n      0x00\n        /* \"#utility.yul\":4700:4701   */\n      0x08\n        /* \"#utility.yul\":4688:4698   */\n      dup4\n        /* \"#utility.yul\":4684:4702   */\n      mul\n        /* \"#utility.yul\":4723:4820   */\n      tag_192\n        /* \"#utility.yul\":4753:4819   */\n      0xffffffffffffffffffffffffffffffffffffffffffffffffffffffffffffffff\n        /* \"#utility.yul\":4742:4751   */\n      dup3\n        /* \"#utility.yul\":4723:4820   */\n      tag_133\n      jump\t// in\n    tag_192:\n        /* \"#utility.yul\":4841:4880   */\n      tag_193\n        /* \"#utility.yul\":4871:4879   */\n      dup7\n        /* \"#utility.yul\":4860:4869   */\n      dup4\n        /* \"#utility.yul\":4841:4880   */\n      tag_133\n      jump\t// in\n    tag_193:\n        /* \"#utility.yul\":4829:4880   */\n      swap6\n      pop\n        /* \"#utility.yul\":4913:4917   */\n      dup1\n        /* \"#utility.yul\":4909:4918   */\n      not\n        /* \"#utility.yul\":4902:4907   */\n      dup5\n        /* \"#utility.yul\":4898:4919   */\n      and\n        /* \"#utility.yul\":4889:4919   */\n      swap4\n      pop\n        /* \"#utility.yul\":4962:4966   */\n      dup1\n        /* \"#utility.yul\":4952:4960   */\n      dup7\n        /* \"#utility.yul\":4948:4967   */\n      and\n        /* \"#utility.yul\":4941:4946   */\n      dup5\n        /* \"#utility.yul\":4938:4968   */\n      or\n        /* \"#utility.yul\":4928:4968   */\n      swap3\n      pop\n        /* \"#utility.yul\":4657:4974   */\n      pop\n      pop\n        /* \"#utility.yul\":4581:4974   */\n      swap4\n      swap3\n      pop\n      pop\n      pop\n      jump\t// out\n        /* \"#utility.yul\":4980:5040   */\n    tag_135:\n        /* \"#utility.yul\":5008:5011   */\n      0x00\n        /* \"#utility.yul\":5029:5034   */\n      dup2\n        /* \"#utility.yul\":5022:5034   */\n      swap1\n      pop\n        /* \"#utility.yul\":4980:5040   */\n      swap2\n      swap1\n      pop\n      jump\t// out\n        /* \"#utility.yul\":5046:5188   */\n    tag_136:\n        /* \"#utility.yul\":5096:5105   */\n      0x00\n        /* \"#utility.yul\":5129:5182   */\n      tag_196\n        /* \"#utility.yul\":5147:5181   */\n      tag_197\n        /* \"#utility.yul\":5156:5180   */\n      tag_198\n        /* \"#utility.yul\":5174:5179   */\n      dup5\n        /* \"#utility.yul\":5156:5180   */\n      tag_116\n      jump\t// in\n    tag_198:\n        /* \"#utility.yul\":5147:5181   */\n      tag_135\n      jump\t// in\n    tag_197:\n        /* \"#utility.yul\":5129:5182   */\n      tag_116\n      jump\t// in\n    tag_196:\n        /* \"#utility.yul\":5116:5182   */\n      swap1\n      pop\n        /* \"#utility.yul\":5046:5188   */\n      swap2\n      swap1\n      pop\n      jump\t// out\n        /* \"#utility.yul\":5194:5269   */\n    tag_137:\n        /* \"#utility.yul\":5237:5240   */\n      0x00\n        /* \"#utility.yul\":5258:5263   */\n      dup2\n        /* \"#utility.yul\":5251:5263   */\n      swap1\n      pop\n        /* \"#utility.yul\":5194:5269   */\n      swap2\n      swap1\n      pop\n      jump\t// out\n        /* \"#utility.yul\":5275:5544   */\n    tag_138:\n        /* \"#utility.yul\":5385:5424   */\n      tag_201\n        /* \"#utility.yul\":5416:5423   */\n      dup4\n        /* \"#utility.yul\":5385:5424   */\n      tag_136\n      jump\t// in\n    tag_201:\n        /* \"#utility.yul\":5446:5537   */\n      tag_202\n        /* \"#utility.yul\":5495:5536   */\n      tag_203\n        /* \"#utility.yul\":5519:5535   */\n      dup3\n        /* \"#utility.yul\":5495:5536   */\n      tag_137\n      jump\t// in\n    tag_203:\n        /* \"#utility.yul\":5487:5493   */\n      dup5\n        /* \"#utility.yul\":5480:5484   */\n      dup5\n        /* \"#utility.yul\":5474:5485   */\n      sload\n        /* \"#utility.yul\":5446:5537   */\n      tag_134\n      jump\t// in\n    tag_202:\n        /* \"#utility.yul\":5440:5444   */\n      dup3\n        /* \"#utility.yul\":5433:5538   */\n      sstore\n        /* \"#utility.yul\":5351:5544   */\n      pop\n        /* \"#utility.yul\":5275:5544   */\n      pop\n      pop\n      pop\n      jump\t// out\n        /* \"#utility.yul\":5550:5623   */\n    tag_139:\n        /* \"#utility.yul\":5595:5598   */\n      0x00\n        /* \"#utility.yul\":5550:5623   */\n      swap1\n      jump\t// out\n        /* \"#utility.yul\":5629:5818   */\n    tag_140:\n        /* \"#utility.yul\":5706:5738   */\n      tag_206\n      tag_139\n      jump\t// in\n    tag_206:\n        /* \"#utility.yul\":5747:5812   */\n      tag_207\n        /* \"#utility.yul\":5805:5811   */\n      dup2\n        /* \"#utility.yul\":5797:5803   */\n      dup5\n        /* \"#utility.yul\":5791:5795   */\n      dup5\n        /* \"#utility.yul\":5747:5812   */\n      tag_138\n      jump\t// in\n    tag_207:\n        /* \"#utility.yul\":5682:5818   */\n      pop\n        /* \"#utility.yul\":5629:5818   */\n      pop\n      pop\n      jump\t// out\n        /* \"#utility.yul\":5824:6010   */\n    tag_141:\n        /* \"#utility.yul\":5884:6004   */\n    tag_209:\n        /* \"#utility.yul\":5901:5904   */\n      dup2\n        /* \"#utility.yul\":5894:5899   */\n      dup2\n        /* \"#utility.yul\":5891:5905   */\n      lt\n        /* \"#utility.yul\":5884:6004   */\n      iszero\n      tag_211\n      jumpi\n        /* \"#utility.yul\":5955:5994   */\n      tag_212\n        /* \"#utility.yul\":5992:5993   */\n      0x00\n        /* \"#utility.yul\":5985:5990   */\n      dup3\n        /* \"#utility.yul\":5955:5994   */\n      tag_140\n      jump\t// in\n    tag_212:\n        /* \"#utility.yul\":5928:5929   */\n      0x01\n        /* \"#utility.yul\":5921:5926   */\n      dup2\n        /* \"#utility.yul\":5917:5930   */\n      add\n        /* \"#utility.yul\":5908:5930   */\n      swap1\n      pop\n        /* \"#utility.yul\":5884:6004   */\n      jump(tag_209)\n    tag_211:\n        /* \"#utility.yul\":5824:6010   */\n      pop\n      pop\n      jump\t// out\n        /* \"#utility.yul\":6016:6559   */\n    tag_142:\n        /* \"#utility.yul\":6117:6119   */\n      0x1f\n        /* \"#utility.yul\":6112:6115   */\n      dup3\n        /* \"#utility.yul\":6109:6120   */\n      gt\n        /* \"#utility.yul\":6106:6552   */\n      iszero\n      tag_214\n      jumpi\n        /* \"#utility.yul\":6151:6189   */\n      tag_215\n        /* \"#utility.yul\":6183:6188   */\n      dup2\n        /* \"#utility.yul\":6151:6189   */\n      tag_131\n      jump\t// in\n    tag_215:\n        /* \"#utility.yul\":6235:6264   */\n      tag_216\n        /* \"#utility.yul\":6253:6263   */\n      dup5\n        /* \"#utility.yul\":6235:6264   */\n      tag_132\n      jump\t// in\n    tag_216:\n        /* \"#utility.yul\":6225:6233   */\n      dup2\n        /* \"#utility.yul\":6221:6265   */\n      add\n        /* \"#utility.yul\":6418:6420   */\n      0x20\n        /* \"#utility.yul\":6406:6416   */\n      dup6\n        /* \"#utility.yul\":6403:6421   */\n      lt\n        /* \"#utility.yul\":6400:6449   */\n      iszero\n      tag_217\n      jumpi\n        /* \"#utility.yul\":6439:6447   */\n      dup2\n        /* \"#utility.yul\":6424:6447   */\n      swap1\n      pop\n        /* \"#utility.yul\":6400:6449   */\n    tag_217:\n        /* \"#utility.yul\":6462:6542   */\n      tag_218\n        /* \"#utility.yul\":6518:6540   */\n      tag_219\n        /* \"#utility.yul\":6536:6539   */\n      dup6\n        /* \"#utility.yul\":6518:6540   */\n      tag_132\n      jump\t// in\n    tag_219:\n        /* \"#utility.yul\":6508:6516   */\n      dup4\n        /* \"#utility.yul\":6504:6541   */\n      add\n        /* \"#utility.yul\":6491:6502   */\n      dup3\n        /* \"#utility.yul\":6462:6542   */\n      tag_141\n      jump\t// in\n    tag_218:\n        /* \"#utility.yul\":6121:6552   */\n      pop\n      pop\n        /* \"#utility.yul\":6106:6552   */\n    tag_214:\n        /* \"#utility.yul\":6016:6559   */\n      pop\n      pop\n      pop\n      jump\t// out\n        /* \"#utility.yul\":6565:6682   */\n    tag_143:\n        /* \"#utility.yul\":6619:6627   */\n      0x00\n        /* \"#utility.yul\":6669:6674   */\n      dup3\n        /* \"#utility.yul\":6663:6667   */\n      dup3\n        /* \"#utility.yul\":6659:6675   */\n      shr\n        /* \"#utility.yul\":6638:6675   */\n      swap1\n      pop\n        /* \"#utility.yul\":6565:6682   */\n      swap3\n      swap2\n      pop\n      pop\n      jump\t// out\n        /* \"#utility.yul\":6688:6857   */\n    tag_144:\n        /* \"#utility.yul\":6732:6738   */\n      0x00\n        /* \"#utility.yul\":6765:6816   */\n      tag_222\n        /* \"#utility.yul\":6813:6814   */\n      0x00\n        /* \"#utility.yul\":6809:6815   */\n      not\n        /* \"#utility.yul\":6801:6806   */\n      dup5\n        /* \"#utility.yul\":6798:6799   */\n      0x08\n        /* \"#utility.yul\":6794:6807   */\n      mul\n        /* \"#utility.yul\":6765:6816   */\n      tag_143\n      jump\t// in\n    tag_222:\n        /* \"#utility.yul\":6761:6817   */\n      not\n        /* \"#utility.yul\":6846:6850   */\n      dup1\n        /* \"#utility.yul\":6840:6844   */\n      dup4\n        /* \"#utility.yul\":6836:6851   */\n      and\n        /* \"#utility.yul\":6826:6851   */\n      swap2\n      pop\n        /* \"#utility.yul\":6739:6857   */\n      pop\n        /* \"#utility.yul\":6688:6857   */\n      swap3\n      swap2\n      pop\n      pop\n      jump\t// out\n        /* \"#utility.yul\":6862:7157   */\n    tag_145:\n        /* \"#utility.yul\":6938:6942   */\n      0x00\n        /* \"#utility.yul\":7084:7113   */\n      tag_224\n        /* \"#utility.yul\":7109:7112   */\n      dup4\n        /* \"#utility.yul\":7103:7107   */\n      dup4\n        /* \"#utility.yul\":7084:7113   */\n      tag_144\n      jump\t// in\n    tag_224:\n        /* \"#utility.yul\":7076:7113   */\n      swap2\n      pop\n        /* \"#utility.yul\":7146:7149   */\n      dup3\n        /* \"#utility.yul\":7143:7144   */\n      0x02\n        /* \"#utility.yul\":7139:7150   */\n      mul\n        /* \"#utility.yul\":7133:7137   */\n      dup3\n        /* \"#utility.yul\":7130:7151   */\n      or\n        /* \"#utility.yul\":7122:7151   */\n      swap1\n      pop\n        /* \"#utility.yul\":6862:7157   */\n      swap3\n      swap2\n      pop\n      pop\n      jump\t// out\n        /* \"#utility.yul\":7162:8557   */\n    tag_96:\n        /* \"#utility.yul\":7279:7316   */\n      tag_226\n        /* \"#utility.yul\":7312:7315   */\n      dup3\n        /* \"#utility.yul\":7279:7316   */\n      tag_126\n      jump\t// in\n    tag_226:\n        /* \"#utility.yul\":7381:7399   */\n      0xffffffffffffffff\n        /* \"#utility.yul\":7373:7379   */\n      dup2\n        /* \"#utility.yul\":7370:7400   */\n      gt\n        /* \"#utility.yul\":7367:7423   */\n      iszero\n      tag_227\n      jumpi\n        /* \"#utility.yul\":7403:7421   */\n      tag_228\n      tag_129\n      jump\t// in\n    tag_228:\n        /* \"#utility.yul\":7367:7423   */\n    tag_227:\n        /* \"#utility.yul\":7447:7485   */\n      tag_229\n        /* \"#utility.yul\":7479:7483   */\n      dup3\n        /* \"#utility.yul\":7473:7484   */\n      sload\n        /* \"#utility.yul\":7447:7485   */\n      tag_98\n      jump\t// in\n    tag_229:\n        /* \"#utility.yul\":7532:7599   */\n      tag_230\n        /* \"#utility.yul\":7592:7598   */\n      dup3\n        /* \"#utility.yul\":7584:7590   */\n      dup3\n        /* \"#utility.yul\":7578:7582   */\n      dup6\n        /* \"#utility.yul\":7532:7599   */\n      tag_142\n      jump\t// in\n    tag_230:\n        /* \"#utility.yul\":7626:7627   */\n      0x00\n        /* \"#utility.yul\":7650:7654   */\n      0x20\n        /* \"#utility.yul\":7637:7654   */\n      swap1\n      pop\n        /* \"#utility.yul\":7682:7684   */\n      0x1f\n        /* \"#utility.yul\":7674:7680   */\n      dup4\n        /* \"#utility.yul\":7671:7685   */\n      gt\n        /* \"#utility.yul\":7699:7700   */\n      0x01\n        /* \"#utility.yul\":7694:8312   */\n      dup2\n      eq\n      tag_232\n      jumpi\n        /* \"#utility.yul\":8356:8357   */\n      0x00\n        /* \"#utility.yul\":8373:8379   */\n      dup5\n        /* \"#utility.yul\":8370:8447   */\n      iszero\n      tag_233\n      jumpi\n        /* \"#utility.yul\":8422:8431   */\n      dup3\n        /* \"#utility.yul\":8417:8420   */\n      dup8\n        /* \"#utility.yul\":8413:8432   */\n      add\n        /* \"#utility.yul\":8407:8433   */\n      mload\n        /* \"#utility.yul\":8398:8433   */\n      swap1\n      pop\n        /* \"#utility.yul\":8370:8447   */\n    tag_233:\n        /* \"#utility.yul\":8473:8540   */\n      tag_234\n        /* \"#utility.yul\":8533:8539   */\n      dup6\n        /* \"#utility.yul\":8526:8531   */\n      dup3\n        /* \"#utility.yul\":8473:8540   */\n      tag_145\n      jump\t// in\n    tag_234:\n        /* \"#utility.yul\":8467:8471   */\n      dup7\n        /* \"#utility.yul\":8460:8541   */\n      sstore\n        /* \"#utility.yul\":8329:8551   */\n      pop\n        /* \"#utility.yul\":7664:8551   */\n      jump(tag_231)\n        /* \"#utility.yul\":7694:8312   */\n    tag_232:\n        /* \"#utility.yul\":7746:7750   */\n      0x1f\n        /* \"#utility.yul\":7742:7751   */\n      not\n        /* \"#utility.yul\":7734:7740   */\n      dup5\n        /* \"#utility.yul\":7730:7752   */\n      and\n        /* \"#utility.yul\":7780:7817   */\n      tag_235\n        /* \"#utility.yul\":7812:7816   */\n      dup7\n        /* \"#utility.yul\":7780:7817   */\n      tag_131\n      jump\t// in\n    tag_235:\n        /* \"#utility.yul\":7839:7840   */\n      0x00\n        /* \"#utility.yul\":7853:8061   */\n    tag_236:\n        /* \"#utility.yul\":7867:7874   */\n      dup3\n        /* \"#utility.yul\":7864:7865   */\n      dup2\n        /* \"#utility.yul\":7861:7875   */\n      lt\n        /* \"#utility.yul\":7853:8061   */\n      iszero\n      tag_238\n      jumpi\n        /* \"#utility.yul\":7946:7955   */\n      dup5\n        /* \"#utility.yul\":7941:7944   */\n      dup10\n        /* \"#utility.yul\":7937:7956   */\n      add\n        /* \"#utility.yul\":7931:7957   */\n      mload\n        /* \"#utility.yul\":7923:7929   */\n      dup3\n        /* \"#utility.yul\":7916:7958   */\n      sstore\n        /* \"#utility.yul\":7997:7998   */\n      0x01\n        /* \"#utility.yul\":7989:7995   */\n      dup3\n        /* \"#utility.yul\":7985:7999   */\n      add\n        /* \"#utility.yul\":7975:7999   */\n      swap2\n      pop\n        /* \"#utility.yul\":8044:8046   */\n      0x20\n        /* \"#utility.yul\":8033:8042   */\n      dup6\n        /* \"#utility.yul\":8029:8047   */\n      add\n        /* \"#utility.yul\":8016:8047   */\n      swap5\n      pop\n        /* \"#utility.yul\":7890:7894   */\n      0x20\n        /* \"#utility.yul\":7887:7888   */\n      dup2\n        /* \"#utility.yul\":7883:7895   */\n      add\n        /* \"#utility.yul\":7878:7895   */\n      swap1\n      pop\n        /* \"#utility.yul\":7853:8061   */\n      jump(tag_236)\n    tag_238:\n        /* \"#utility.yul\":8089:8095   */\n      dup7\n        /* \"#utility.yul\":8080:8087   */\n      dup4\n        /* \"#utility.yul\":8077:8096   */\n      lt\n        /* \"#utility.yul\":8074:8253   */\n      iszero\n      tag_239\n      jumpi\n        /* \"#utility.yul\":8147:8156   */\n      dup5\n        /* \"#utility.yul\":8142:8145   */\n      dup10\n        /* \"#utility.yul\":8138:8157   */\n      add\n        /* \"#utility.yul\":8132:8158   */\n      mload\n        /* \"#utility.yul\":8190:8238   */\n      tag_240\n        /* \"#utility.yul\":8232:8236   */\n      0x1f\n        /* \"#utility.yul\":8224:8230   */\n      dup10\n        /* \"#utility.yul\":8220:8237   */\n      and\n        /* \"#utility.yul\":8209:8218   */\n      dup3\n        /* \"#utility.yul\":8190:8238   */\n      tag_144\n      jump\t// in\n    tag_240:\n        /* \"#utility.yul\":8182:8188   */\n      dup4\n        /* \"#utility.yul\":8175:8239   */\n      sstore\n        /* \"#utility.yul\":8097:8253   */\n      pop\n        /* \"#utility.yul\":8074:8253   */\n    tag_239:\n        /* \"#utility.yul\":8299:8300   */\n      0x01\n        /* \"#utility.yul\":8295:8296   */\n      0x02\n        /* \"#utility.yul\":8287:8293   */\n      dup9\n        /* \"#utility.yul\":8283:8297   */\n      mul\n        /* \"#utility.yul\":8279:8301   */\n      add\n        /* \"#utility.yul\":8273:8277   */\n      dup9\n        /* \"#utility.yul\":8266:8302   */\n      sstore\n        /* \"#utility.yul\":7701:8312   */\n      pop\n      pop\n      pop\n        /* \"#utility.yul\":7664:8551   */\n    tag_231:\n      pop\n        /* \"#utility.yul\":7254:8557   */\n      pop\n      pop\n      pop\n        /* \"#utility.yul\":7162:8557   */\n      pop\n      pop\n      jump\t// out\n        /* \"#utility.yul\":8563:8743   */\n    tag_146:\n        /* \"#utility.yul\":8611:8688   */\n      0x4e487b7100000000000000000000000000000000000000000000000000000000\n        /* \"#utility.yul\":8608:8609   */\n      0x00\n        /* \"#utility.yul\":8601:8689   */\n      mstore\n        /* \"#utility.yul\":8708:8712   */\n      0x11\n        /* \"#utility.yul\":8705:8706   */\n      0x04\n        /* \"#utility.yul\":8698:8713   */\n      mstore\n        /* \"#utility.yul\":8732:8736   */\n      0x24\n        /* \"#utility.yul\":8729:8730   */\n      0x00\n        /* \"#utility.yul\":8722:8737   */\n      revert\n        /* \"#utility.yul\":8749:8940   */\n    tag_115:\n        /* \"#utility.yul\":8789:8792   */\n      0x00\n        /* \"#utility.yul\":8808:8828   */\n      tag_243\n        /* \"#utility.yul\":8826:8827   */\n      dup3\n        /* \"#utility.yul\":8808:8828   */\n      tag_116\n      jump\t// in\n    tag_243:\n        /* \"#utility.yul\":8803:8828   */\n      swap2\n      pop\n        /* \"#utility.yul\":8842:8862   */\n      tag_244\n        /* \"#utility.yul\":8860:8861   */\n      dup4\n        /* \"#utility.yul\":8842:8862   */\n      tag_116\n      jump\t// in\n    tag_244:\n        /* \"#utility.yul\":8837:8862   */\n      swap3\n      pop\n        /* \"#utility.yul\":8885:8886   */\n      dup3\n        /* \"#utility.yul\":8882:8883   */\n      dup3\n        /* \"#utility.yul\":8878:8887   */\n      add\n        /* \"#utility.yul\":8871:8887   */\n      swap1\n      pop\n        /* \"#utility.yul\":8906:8909   */\n      dup1\n        /* \"#utility.yul\":8903:8904   */\n      dup3\n        /* \"#utility.yul\":8900:8910   */\n      gt\n        /* \"#utility.yul\":8897:8933   */\n      iszero\n      tag_245\n      jumpi\n        /* \"#utility.yul\":8913:8931   */\n      tag_246\n      tag_146\n      jump\t// in\n    tag_246:\n        /* \"#utility.yul\":8897:8933   */\n    tag_245:\n        /* \"#utility.yul\":8749:8940   */\n      swap3\n      swap2\n      pop\n      pop\n      jump\t// out\n\n    auxdata: 0xa26469706673582212200653e432f080d27551b6498354d9ad6e89c132ebed9f801f4ec4b928b710c32864736f6c634300081a0033\n}\n",
				"bytecode": {
					"linkReferences": {},
					"object": "608060405260015f553480156012575f80fd5b50610abe806100205f395ff3fe608060405234801561000f575f80fd5b50600436106100e8575f3560e01c8063a05f99061161008a578063c5d7802e11610064578063c5d7802e14610207578063cc97e23814610225578063f1e6d19814610243578063febb0f7e14610261576100e8565b8063a05f9906146101be578063a56dfe4a146101df578063c2985578146101fd576100e8565b80632da422fe116100c65780632da422fe1461014657806339ab09a714610164578063556b90b2146101825780636ee41262146101a0576100e8565b80630c55699c146100ec57806322d05d601461010a5780632300423814610128575b5f80fd5b6100f461027f565b6040516101019190610581565b60405180910390f35b610112610284565b60405161011f9190610581565b60405180910390f35b6101306102c3565b60405161013d9190610581565b60405180910390f35b61014e6102f0565b60405161015b9190610581565b60405180910390f35b61016c61031a565b6040516101799190610581565b60405180910390f35b61018a61034d565b6040516101979190610581565b60405180910390f35b6101a861037d565b6040516101b59190610581565b60405180910390f35b6101c6610396565b6040516101d69493929190610649565b60405180910390f35b6101e7610404565b6040516101f49190610581565b60405180910390f35b61020561040a565b005b61020f610460565b60405161021c91906106e5565b60405180910390f35b61022d6104ec565b60405161023a9190610581565b60405180910390f35b61024b61051c565b6040516102589190610581565b60405180910390f35b610269610546565b6040516102769190610581565b60405180910390f35b5f5481565b5f670de0b6b3a7640000801461029d5761029c610705565b5b670de0b6b3a764000080146102b5576102b4610705565b5b670de0b6b3a7640000905090565b5f610e1080146102d6576102d5610705565b5b610e1080146102e8576102e7610705565b5b610e10905090565b5f6001801461030257610301610705565b5b6001801461031357610312610705565b5b6001905090565b5f633b9aca00801461032f5761032e610705565b5b633b9aca00801461034357610342610705565b5b633b9aca00905090565b5f62093a80801461036157610360610705565b5b62093a80801461037457610373610705565b5b62093a80905090565b5f6001801461038f5761038e610705565b5b6001905090565b5f8060605f803390505f4390505f80368080601f0160208091040260200160405190810160405280939291908181526020018383808284375f81840152601f19601f8201169050808301925050505050505090505f4590508383838397509750975097505050505090919293565b60015481565b60055f8190555060026001819055506040518060400160405280600481526020017f30784141000000000000000000000000000000000000000000000000000000008152506002908161045d9190610959565b50565b6002805461046d9061078c565b80601f01602080910402602001604051908101604052809291908181526020018280546104999061078c565b80156104e45780601f106104bb576101008083540402835291602001916104e4565b820191905f5260205f20905b8154815290600101906020018083116104c757829003601f168201915b505050505081565b5f620151808014610500576104ff610705565b5b62015180801461051357610512610705565b5b62015180905090565b5f603c801461052e5761052d610705565b5b603c801461053f5761053e610705565b5b603c905090565b5f80600190505f600390505f818361055e9190610a55565b905080935050505090565b5f819050919050565b61057b81610569565b82525050565b5f6020820190506105945f830184610572565b92915050565b5f73ffffffffffffffffffffffffffffffffffffffff82169050919050565b5f6105c38261059a565b9050919050565b6105d3816105b9565b82525050565b5f81519050919050565b5f82825260208201905092915050565b8281835e5f83830152505050565b5f601f19601f8301169050919050565b5f61061b826105d9565b61062581856105e3565b93506106358185602086016105f3565b61063e81610601565b840191505092915050565b5f60808201905061065c5f8301876105ca565b6106696020830186610572565b818103604083015261067b8185610611565b905061068a6060830184610572565b95945050505050565b5f81519050919050565b5f82825260208201905092915050565b5f6106b782610693565b6106c1818561069d565b93506106d18185602086016105f3565b6106da81610601565b840191505092915050565b5f6020820190508181035f8301526106fd81846106ad565b905092915050565b7f4e487b71000000000000000000000000000000000000000000000000000000005f52600160045260245ffd5b7f4e487b71000000000000000000000000000000000000000000000000000000005f52604160045260245ffd5b7f4e487b71000000000000000000000000000000000000000000000000000000005f52602260045260245ffd5b5f60028204905060018216806107a357607f821691505b6020821081036107b6576107b561075f565b5b50919050565b5f819050815f5260205f209050919050565b5f6020601f8301049050919050565b5f82821b905092915050565b5f600883026108187fffffffffffffffffffffffffffffffffffffffffffffffffffffffffffffffff826107dd565b61082286836107dd565b95508019841693508086168417925050509392505050565b5f819050919050565b5f61085d61085861085384610569565b61083a565b610569565b9050919050565b5f819050919050565b61087683610843565b61088a61088282610864565b8484546107e9565b825550505050565b5f90565b61089e610892565b6108a981848461086d565b505050565b5b818110156108cc576108c15f82610896565b6001810190506108af565b5050565b601f821115610911576108e2816107bc565b6108eb846107ce565b810160208510156108fa578190505b61090e610906856107ce565b8301826108ae565b50505b505050565b5f82821c905092915050565b5f6109315f1984600802610916565b1980831691505092915050565b5f6109498383610922565b9150826002028217905092915050565b61096282610693565b67ffffffffffffffff81111561097b5761097a610732565b5b610985825461078c565b6109908282856108d0565b5f60209050601f8311600181146109c1575f84156109af578287015190505b6109b9858261093e565b865550610a20565b601f1984166109cf866107bc565b5f5b828110156109f6578489015182556001820191506020850194506020810190506109d1565b86831015610a135784890151610a0f601f891682610922565b8355505b6001600288020188555050505b505050505050565b7f4e487b71000000000000000000000000000000000000000000000000000000005f52601160045260245ffd5b5f610a5f82610569565b9150610a6a83610569565b9250828201905080821115610a8257610a81610a28565b5b9291505056fea26469706673582212200653e432f080d27551b6498354d9ad6e89c132ebed9f801f4ec4b928b710c32864736f6c634300081a0033",
					"opcodes": "PUSH1 0x80 PUSH1 0x40 MSTORE PUSH1 0x1 PUSH0 SSTORE CALLVALUE DUP1 ISZERO PUSH1 0x12 JUMPI PUSH0 DUP1 REVERT JUMPDEST POP PUSH2 0xABE DUP1 PUSH2 0x20 PUSH0 CODECOPY PUSH0 RETURN INVALID PUSH1 0x80 PUSH1 0x40 MSTORE CALLVALUE DUP1 ISZERO PUSH2 0xF JUMPI PUSH0 DUP1 REVERT JUMPDEST POP PUSH1 0x4 CALLDATASIZE LT PUSH2 0xE8 JUMPI PUSH0 CALLDATALOAD PUSH1 0xE0 SHR DUP1 PUSH4 0xA05F9906 GT PUSH2 0x8A JUMPI DUP1 PUSH4 0xC5D7802E GT PUSH2 0x64 JUMPI DUP1 PUSH4 0xC5D7802E EQ PUSH2 0x207 JUMPI DUP1 PUSH4 0xCC97E238 EQ PUSH2 0x225 JUMPI DUP1 PUSH4 0xF1E6D198 EQ PUSH2 0x243 JUMPI DUP1 PUSH4 0xFEBB0F7E EQ PUSH2 0x261 JUMPI PUSH2 0xE8 JUMP JUMPDEST DUP1 PUSH4 0xA05F9906 EQ PUSH2 0x1BE JUMPI DUP1 PUSH4 0xA56DFE4A EQ PUSH2 0x1DF JUMPI DUP1 PUSH4 0xC2985578 EQ PUSH2 0x1FD JUMPI PUSH2 0xE8 JUMP JUMPDEST DUP1 PUSH4 0x2DA422FE GT PUSH2 0xC6 JUMPI DUP1 PUSH4 0x2DA422FE EQ PUSH2 0x146 JUMPI DUP1 PUSH4 0x39AB09A7 EQ PUSH2 0x164 JUMPI DUP1 PUSH4 0x556B90B2 EQ PUSH2 0x182 JUMPI DUP1 PUSH4 0x6EE41262 EQ PUSH2 0x1A0 JUMPI PUSH2 0xE8 JUMP JUMPDEST DUP1 PUSH4 0xC55699C EQ PUSH2 0xEC JUMPI DUP1 PUSH4 0x22D05D60 EQ PUSH2 0x10A JUMPI DUP1 PUSH4 0x23004238 EQ PUSH2 0x128 JUMPI JUMPDEST PUSH0 DUP1 REVERT JUMPDEST PUSH2 0xF4 PUSH2 0x27F JUMP JUMPDEST PUSH1 0x40 MLOAD PUSH2 0x101 SWAP2 SWAP1 PUSH2 0x581 JUMP JUMPDEST PUSH1 0x40 MLOAD DUP1 SWAP2 SUB SWAP1 RETURN JUMPDEST PUSH2 0x112 PUSH2 0x284 JUMP JUMPDEST PUSH1 0x40 MLOAD PUSH2 0x11F SWAP2 SWAP1 PUSH2 0x581 JUMP JUMPDEST PUSH1 0x40 MLOAD DUP1 SWAP2 SUB SWAP1 RETURN JUMPDEST PUSH2 0x130 PUSH2 0x2C3 JUMP JUMPDEST PUSH1 0x40 MLOAD PUSH2 0x13D SWAP2 SWAP1 PUSH2 0x581 JUMP JUMPDEST PUSH1 0x40 MLOAD DUP1 SWAP2 SUB SWAP1 RETURN JUMPDEST PUSH2 0x14E PUSH2 0x2F0 JUMP JUMPDEST PUSH1 0x40 MLOAD PUSH2 0x15B SWAP2 SWAP1 PUSH2 0x581 JUMP JUMPDEST PUSH1 0x40 MLOAD DUP1 SWAP2 SUB SWAP1 RETURN JUMPDEST PUSH2 0x16C PUSH2 0x31A JUMP JUMPDEST PUSH1 0x40 MLOAD PUSH2 0x179 SWAP2 SWAP1 PUSH2 0x581 JUMP JUMPDEST PUSH1 0x40 MLOAD DUP1 SWAP2 SUB SWAP1 RETURN JUMPDEST PUSH2 0x18A PUSH2 0x34D JUMP JUMPDEST PUSH1 0x40 MLOAD PUSH2 0x197 SWAP2 SWAP1 PUSH2 0x581 JUMP JUMPDEST PUSH1 0x40 MLOAD DUP1 SWAP2 SUB SWAP1 RETURN JUMPDEST PUSH2 0x1A8 PUSH2 0x37D JUMP JUMPDEST PUSH1 0x40 MLOAD PUSH2 0x1B5 SWAP2 SWAP1 PUSH2 0x581 JUMP JUMPDEST PUSH1 0x40 MLOAD DUP1 SWAP2 SUB SWAP1 RETURN JUMPDEST PUSH2 0x1C6 PUSH2 0x396 JUMP JUMPDEST PUSH1 0x40 MLOAD PUSH2 0x1D6 SWAP5 SWAP4 SWAP3 SWAP2 SWAP1 PUSH2 0x649 JUMP JUMPDEST PUSH1 0x40 MLOAD DUP1 SWAP2 SUB SWAP1 RETURN JUMPDEST PUSH2 0x1E7 PUSH2 0x404 JUMP JUMPDEST PUSH1 0x40 MLOAD PUSH2 0x1F4 SWAP2 SWAP1 PUSH2 0x581 JUMP JUMPDEST PUSH1 0x40 MLOAD DUP1 SWAP2 SUB SWAP1 RETURN JUMPDEST PUSH2 0x205 PUSH2 0x40A JUMP JUMPDEST STOP JUMPDEST PUSH2 0x20F PUSH2 0x460 JUMP JUMPDEST PUSH1 0x40 MLOAD PUSH2 0x21C SWAP2 SWAP1 PUSH2 0x6E5 JUMP JUMPDEST PUSH1 0x40 MLOAD DUP1 SWAP2 SUB SWAP1 RETURN JUMPDEST PUSH2 0x22D PUSH2 0x4EC JUMP JUMPDEST PUSH1 0x40 MLOAD PUSH2 0x23A SWAP2 SWAP1 PUSH2 0x581 JUMP JUMPDEST PUSH1 0x40 MLOAD DUP1 SWAP2 SUB SWAP1 RETURN JUMPDEST PUSH2 0x24B PUSH2 0x51C JUMP JUMPDEST PUSH1 0x40 MLOAD PUSH2 0x258 SWAP2 SWAP1 PUSH2 0x581 JUMP JUMPDEST PUSH1 0x40 MLOAD DUP1 SWAP2 SUB SWAP1 RETURN JUMPDEST PUSH2 0x269 PUSH2 0x546 JUMP JUMPDEST PUSH1 0x40 MLOAD PUSH2 0x276 SWAP2 SWAP1 PUSH2 0x581 JUMP JUMPDEST PUSH1 0x40 MLOAD DUP1 SWAP2 SUB SWAP1 RETURN JUMPDEST PUSH0 SLOAD DUP2 JUMP JUMPDEST PUSH0 PUSH8 0xDE0B6B3A7640000 DUP1 EQ PUSH2 0x29D JUMPI PUSH2 0x29C PUSH2 0x705 JUMP JUMPDEST JUMPDEST PUSH8 0xDE0B6B3A7640000 DUP1 EQ PUSH2 0x2B5 JUMPI PUSH2 0x2B4 PUSH2 0x705 JUMP JUMPDEST JUMPDEST PUSH8 0xDE0B6B3A7640000 SWAP1 POP SWAP1 JUMP JUMPDEST PUSH0 PUSH2 0xE10 DUP1 EQ PUSH2 0x2D6 JUMPI PUSH2 0x2D5 PUSH2 0x705 JUMP JUMPDEST JUMPDEST PUSH2 0xE10 DUP1 EQ PUSH2 0x2E8 JUMPI PUSH2 0x2E7 PUSH2 0x705 JUMP JUMPDEST JUMPDEST PUSH2 0xE10 SWAP1 POP SWAP1 JUMP JUMPDEST PUSH0 PUSH1 0x1 DUP1 EQ PUSH2 0x302 JUMPI PUSH2 0x301 PUSH2 0x705 JUMP JUMPDEST JUMPDEST PUSH1 0x1 DUP1 EQ PUSH2 0x313 JUMPI PUSH2 0x312 PUSH2 0x705 JUMP JUMPDEST JUMPDEST PUSH1 0x1 SWAP1 POP SWAP1 JUMP JUMPDEST PUSH0 PUSH4 0x3B9ACA00 DUP1 EQ PUSH2 0x32F JUMPI PUSH2 0x32E PUSH2 0x705 JUMP JUMPDEST JUMPDEST PUSH4 0x3B9ACA00 DUP1 EQ PUSH2 0x343 JUMPI PUSH2 0x342 PUSH2 0x705 JUMP JUMPDEST JUMPDEST PUSH4 0x3B9ACA00 SWAP1 POP SWAP1 JUMP JUMPDEST PUSH0 PUSH3 0x93A80 DUP1 EQ PUSH2 0x361 JUMPI PUSH2 0x360 PUSH2 0x705 JUMP JUMPDEST JUMPDEST PUSH3 0x93A80 DUP1 EQ PUSH2 0x374 JUMPI PUSH2 0x373 PUSH2 0x705 JUMP JUMPDEST JUMPDEST PUSH3 0x93A80 SWAP1 POP SWAP1 JUMP JUMPDEST PUSH0 PUSH1 0x1 DUP1 EQ PUSH2 0x38F JUMPI PUSH2 0x38E PUSH2 0x705 JUMP JUMPDEST JUMPDEST PUSH1 0x1 SWAP1 POP SWAP1 JUMP JUMPDEST PUSH0 DUP1 PUSH1 0x60 PUSH0 DUP1 CALLER SWAP1 POP PUSH0 NUMBER SWAP1 POP PUSH0 DUP1 CALLDATASIZE DUP1 DUP1 PUSH1 0x1F ADD PUSH1 0x20 DUP1 SWAP2 DIV MUL PUSH1 0x20 ADD PUSH1 0x40 MLOAD SWAP1 DUP2 ADD PUSH1 0x40 MSTORE DUP1 SWAP4 SWAP3 SWAP2 SWAP1 DUP2 DUP2 MSTORE PUSH1 0x20 ADD DUP4 DUP4 DUP1 DUP3 DUP5 CALLDATACOPY PUSH0 DUP2 DUP5 ADD MSTORE PUSH1 0x1F NOT PUSH1 0x1F DUP3 ADD AND SWAP1 POP DUP1 DUP4 ADD SWAP3 POP POP POP POP POP POP POP SWAP1 POP PUSH0 GASLIMIT SWAP1 POP DUP4 DUP4 DUP4 DUP4 SWAP8 POP SWAP8 POP SWAP8 POP SWAP8 POP POP POP POP POP SWAP1 SWAP2 SWAP3 SWAP4 JUMP JUMPDEST PUSH1 0x1 SLOAD DUP2 JUMP JUMPDEST PUSH1 0x5 PUSH0 DUP2 SWAP1 SSTORE POP PUSH1 0x2 PUSH1 0x1 DUP2 SWAP1 SSTORE POP PUSH1 0x40 MLOAD DUP1 PUSH1 0x40 ADD PUSH1 0x40 MSTORE DUP1 PUSH1 0x4 DUP2 MSTORE PUSH1 0x20 ADD PUSH32 0x3078414100000000000000000000000000000000000000000000000000000000 DUP2 MSTORE POP PUSH1 0x2 SWAP1 DUP2 PUSH2 0x45D SWAP2 SWAP1 PUSH2 0x959 JUMP JUMPDEST POP JUMP JUMPDEST PUSH1 0x2 DUP1 SLOAD PUSH2 0x46D SWAP1 PUSH2 0x78C JUMP JUMPDEST DUP1 PUSH1 0x1F ADD PUSH1 0x20 DUP1 SWAP2 DIV MUL PUSH1 0x20 ADD PUSH1 0x40 MLOAD SWAP1 DUP2 ADD PUSH1 0x40 MSTORE DUP1 SWAP3 SWAP2 SWAP1 DUP2 DUP2 MSTORE PUSH1 0x20 ADD DUP3 DUP1 SLOAD PUSH2 0x499 SWAP1 PUSH2 0x78C JUMP JUMPDEST DUP1 ISZERO PUSH2 0x4E4 JUMPI DUP1 PUSH1 0x1F LT PUSH2 0x4BB JUMPI PUSH2 0x100 DUP1 DUP4 SLOAD DIV MUL DUP4 MSTORE SWAP2 PUSH1 0x20 ADD SWAP2 PUSH2 0x4E4 JUMP JUMPDEST DUP3 ADD SWAP2 SWAP1 PUSH0 MSTORE PUSH1 0x20 PUSH0 KECCAK256 SWAP1 JUMPDEST DUP2 SLOAD DUP2 MSTORE SWAP1 PUSH1 0x1 ADD SWAP1 PUSH1 0x20 ADD DUP1 DUP4 GT PUSH2 0x4C7 JUMPI DUP3 SWAP1 SUB PUSH1 0x1F AND DUP3 ADD SWAP2 JUMPDEST POP POP POP POP POP DUP2 JUMP JUMPDEST PUSH0 PUSH3 0x15180 DUP1 EQ PUSH2 0x500 JUMPI PUSH2 0x4FF PUSH2 0x705 JUMP JUMPDEST JUMPDEST PUSH3 0x15180 DUP1 EQ PUSH2 0x513 JUMPI PUSH2 0x512 PUSH2 0x705 JUMP JUMPDEST JUMPDEST PUSH3 0x15180 SWAP1 POP SWAP1 JUMP JUMPDEST PUSH0 PUSH1 0x3C DUP1 EQ PUSH2 0x52E JUMPI PUSH2 0x52D PUSH2 0x705 JUMP JUMPDEST JUMPDEST PUSH1 0x3C DUP1 EQ PUSH2 0x53F JUMPI PUSH2 0x53E PUSH2 0x705 JUMP JUMPDEST JUMPDEST PUSH1 0x3C SWAP1 POP SWAP1 JUMP JUMPDEST PUSH0 DUP1 PUSH1 0x1 SWAP1 POP PUSH0 PUSH1 0x3 SWAP1 POP PUSH0 DUP2 DUP4 PUSH2 0x55E SWAP2 SWAP1 PUSH2 0xA55 JUMP JUMPDEST SWAP1 POP DUP1 SWAP4 POP POP POP POP SWAP1 JUMP JUMPDEST PUSH0 DUP2 SWAP1 POP SWAP2 SWAP1 POP JUMP JUMPDEST PUSH2 0x57B DUP2 PUSH2 0x569 JUMP JUMPDEST DUP3 MSTORE POP POP JUMP JUMPDEST PUSH0 PUSH1 0x20 DUP3 ADD SWAP1 POP PUSH2 0x594 PUSH0 DUP4 ADD DUP5 PUSH2 0x572 JUMP JUMPDEST SWAP3 SWAP2 POP POP JUMP JUMPDEST PUSH0 PUSH20 0xFFFFFFFFFFFFFFFFFFFFFFFFFFFFFFFFFFFFFFFF DUP3 AND SWAP1 POP SWAP2 SWAP1 POP JUMP JUMPDEST PUSH0 PUSH2 0x5C3 DUP3 PUSH2 0x59A JUMP JUMPDEST SWAP1 POP SWAP2 SWAP1 POP JUMP JUMPDEST PUSH2 0x5D3 DUP2 PUSH2 0x5B9 JUMP JUMPDEST DUP3 MSTORE POP POP JUMP JUMPDEST PUSH0 DUP2 MLOAD SWAP1 POP SWAP2 SWAP1 POP JUMP JUMPDEST PUSH0 DUP3 DUP3 MSTORE PUSH1 0x20 DUP3 ADD SWAP1 POP SWAP3 SWAP2 POP POP JUMP JUMPDEST DUP3 DUP2 DUP4 MCOPY PUSH0 DUP4 DUP4 ADD MSTORE POP POP POP JUMP JUMPDEST PUSH0 PUSH1 0x1F NOT PUSH1 0x1F DUP4 ADD AND SWAP1 POP SWAP2 SWAP1 POP JUMP JUMPDEST PUSH0 PUSH2 0x61B DUP3 PUSH2 0x5D9 JUMP JUMPDEST PUSH2 0x625 DUP2 DUP6 PUSH2 0x5E3 JUMP JUMPDEST SWAP4 POP PUSH2 0x635 DUP2 DUP6 PUSH1 0x20 DUP7 ADD PUSH2 0x5F3 JUMP JUMPDEST PUSH2 0x63E DUP2 PUSH2 0x601 JUMP JUMPDEST DUP5 ADD SWAP2 POP POP SWAP3 SWAP2 POP POP JUMP JUMPDEST PUSH0 PUSH1 0x80 DUP3 ADD SWAP1 POP PUSH2 0x65C PUSH0 DUP4 ADD DUP8 PUSH2 0x5CA JUMP JUMPDEST PUSH2 0x669 PUSH1 0x20 DUP4 ADD DUP7 PUSH2 0x572 JUMP JUMPDEST DUP2 DUP2 SUB PUSH1 0x40 DUP4 ADD MSTORE PUSH2 0x67B DUP2 DUP6 PUSH2 0x611 JUMP JUMPDEST SWAP1 POP PUSH2 0x68A PUSH1 0x60 DUP4 ADD DUP5 PUSH2 0x572 JUMP JUMPDEST SWAP6 SWAP5 POP POP POP POP POP JUMP JUMPDEST PUSH0 DUP2 MLOAD SWAP1 POP SWAP2 SWAP1 POP JUMP JUMPDEST PUSH0 DUP3 DUP3 MSTORE PUSH1 0x20 DUP3 ADD SWAP1 POP SWAP3 SWAP2 POP POP JUMP JUMPDEST PUSH0 PUSH2 0x6B7 DUP3 PUSH2 0x693 JUMP JUMPDEST PUSH2 0x6C1 DUP2 DUP6 PUSH2 0x69D JUMP JUMPDEST SWAP4 POP PUSH2 0x6D1 DUP2 DUP6 PUSH1 0x20 DUP7 ADD PUSH2 0x5F3 JUMP JUMPDEST PUSH2 0x6DA DUP2 PUSH2 0x601 JUMP JUMPDEST DUP5 ADD SWAP2 POP POP SWAP3 SWAP2 POP POP JUMP JUMPDEST PUSH0 PUSH1 0x20 DUP3 ADD SWAP1 POP DUP2 DUP2 SUB PUSH0 DUP4 ADD MSTORE PUSH2 0x6FD DUP2 DUP5 PUSH2 0x6AD JUMP JUMPDEST SWAP1 POP SWAP3 SWAP2 POP POP JUMP JUMPDEST PUSH32 0x4E487B7100000000000000000000000000000000000000000000000000000000 PUSH0 MSTORE PUSH1 0x1 PUSH1 0x4 MSTORE PUSH1 0x24 PUSH0 REVERT JUMPDEST PUSH32 0x4E487B7100000000000000000000000000000000000000000000000000000000 PUSH0 MSTORE PUSH1 0x41 PUSH1 0x4 MSTORE PUSH1 0x24 PUSH0 REVERT JUMPDEST PUSH32 0x4E487B7100000000000000000000000000000000000000000000000000000000 PUSH0 MSTORE PUSH1 0x22 PUSH1 0x4 MSTORE PUSH1 0x24 PUSH0 REVERT JUMPDEST PUSH0 PUSH1 0x2 DUP3 DIV SWAP1 POP PUSH1 0x1 DUP3 AND DUP1 PUSH2 0x7A3 JUMPI PUSH1 0x7F DUP3 AND SWAP2 POP JUMPDEST PUSH1 0x20 DUP3 LT DUP2 SUB PUSH2 0x7B6 JUMPI PUSH2 0x7B5 PUSH2 0x75F JUMP JUMPDEST JUMPDEST POP SWAP2 SWAP1 POP JUMP JUMPDEST PUSH0 DUP2 SWAP1 POP DUP2 PUSH0 MSTORE PUSH1 0x20 PUSH0 KECCAK256 SWAP1 POP SWAP2 SWAP1 POP JUMP JUMPDEST PUSH0 PUSH1 0x20 PUSH1 0x1F DUP4 ADD DIV SWAP1 POP SWAP2 SWAP1 POP JUMP JUMPDEST PUSH0 DUP3 DUP3 SHL SWAP1 POP SWAP3 SWAP2 POP POP JUMP JUMPDEST PUSH0 PUSH1 0x8 DUP4 MUL PUSH2 0x818 PUSH32 0xFFFFFFFFFFFFFFFFFFFFFFFFFFFFFFFFFFFFFFFFFFFFFFFFFFFFFFFFFFFFFFFF DUP3 PUSH2 0x7DD JUMP JUMPDEST PUSH2 0x822 DUP7 DUP4 PUSH2 0x7DD JUMP JUMPDEST SWAP6 POP DUP1 NOT DUP5 AND SWAP4 POP DUP1 DUP7 AND DUP5 OR SWAP3 POP POP POP SWAP4 SWAP3 POP POP POP JUMP JUMPDEST PUSH0 DUP2 SWAP1 POP SWAP2 SWAP1 POP JUMP JUMPDEST PUSH0 PUSH2 0x85D PUSH2 0x858 PUSH2 0x853 DUP5 PUSH2 0x569 JUMP JUMPDEST PUSH2 0x83A JUMP JUMPDEST PUSH2 0x569 JUMP JUMPDEST SWAP1 POP SWAP2 SWAP1 POP JUMP JUMPDEST PUSH0 DUP2 SWAP1 POP SWAP2 SWAP1 POP JUMP JUMPDEST PUSH2 0x876 DUP4 PUSH2 0x843 JUMP JUMPDEST PUSH2 0x88A PUSH2 0x882 DUP3 PUSH2 0x864 JUMP JUMPDEST DUP5 DUP5 SLOAD PUSH2 0x7E9 JUMP JUMPDEST DUP3 SSTORE POP POP POP POP JUMP JUMPDEST PUSH0 SWAP1 JUMP JUMPDEST PUSH2 0x89E PUSH2 0x892 JUMP JUMPDEST PUSH2 0x8A9 DUP2 DUP5 DUP5 PUSH2 0x86D JUMP JUMPDEST POP POP POP JUMP JUMPDEST JUMPDEST DUP2 DUP2 LT ISZERO PUSH2 0x8CC JUMPI PUSH2 0x8C1 PUSH0 DUP3 PUSH2 0x896 JUMP JUMPDEST PUSH1 0x1 DUP2 ADD SWAP1 POP PUSH2 0x8AF JUMP JUMPDEST POP POP JUMP JUMPDEST PUSH1 0x1F DUP3 GT ISZERO PUSH2 0x911 JUMPI PUSH2 0x8E2 DUP2 PUSH2 0x7BC JUMP JUMPDEST PUSH2 0x8EB DUP5 PUSH2 0x7CE JUMP JUMPDEST DUP2 ADD PUSH1 0x20 DUP6 LT ISZERO PUSH2 0x8FA JUMPI DUP2 SWAP1 POP JUMPDEST PUSH2 0x90E PUSH2 0x906 DUP6 PUSH2 0x7CE JUMP JUMPDEST DUP4 ADD DUP3 PUSH2 0x8AE JUMP JUMPDEST POP POP JUMPDEST POP POP POP JUMP JUMPDEST PUSH0 DUP3 DUP3 SHR SWAP1 POP SWAP3 SWAP2 POP POP JUMP JUMPDEST PUSH0 PUSH2 0x931 PUSH0 NOT DUP5 PUSH1 0x8 MUL PUSH2 0x916 JUMP JUMPDEST NOT DUP1 DUP4 AND SWAP2 POP POP SWAP3 SWAP2 POP POP JUMP JUMPDEST PUSH0 PUSH2 0x949 DUP4 DUP4 PUSH2 0x922 JUMP JUMPDEST SWAP2 POP DUP3 PUSH1 0x2 MUL DUP3 OR SWAP1 POP SWAP3 SWAP2 POP POP JUMP JUMPDEST PUSH2 0x962 DUP3 PUSH2 0x693 JUMP JUMPDEST PUSH8 0xFFFFFFFFFFFFFFFF DUP2 GT ISZERO PUSH2 0x97B JUMPI PUSH2 0x97A PUSH2 0x732 JUMP JUMPDEST JUMPDEST PUSH2 0x985 DUP3 SLOAD PUSH2 0x78C JUMP JUMPDEST PUSH2 0x990 DUP3 DUP3 DUP6 PUSH2 0x8D0 JUMP JUMPDEST PUSH0 PUSH1 0x20 SWAP1 POP PUSH1 0x1F DUP4 GT PUSH1 0x1 DUP2 EQ PUSH2 0x9C1 JUMPI PUSH0 DUP5 ISZERO PUSH2 0x9AF JUMPI DUP3 DUP8 ADD MLOAD SWAP1 POP JUMPDEST PUSH2 0x9B9 DUP6 DUP3 PUSH2 0x93E JUMP JUMPDEST DUP7 SSTORE POP PUSH2 0xA20 JUMP JUMPDEST PUSH1 0x1F NOT DUP5 AND PUSH2 0x9CF DUP7 PUSH2 0x7BC JUMP JUMPDEST PUSH0 JUMPDEST DUP3 DUP2 LT ISZERO PUSH2 0x9F6 JUMPI DUP5 DUP10 ADD MLOAD DUP3 SSTORE PUSH1 0x1 DUP3 ADD SWAP2 POP PUSH1 0x20 DUP6 ADD SWAP5 POP PUSH1 0x20 DUP2 ADD SWAP1 POP PUSH2 0x9D1 JUMP JUMPDEST DUP7 DUP4 LT ISZERO PUSH2 0xA13 JUMPI DUP5 DUP10 ADD MLOAD PUSH2 0xA0F PUSH1 0x1F DUP10 AND DUP3 PUSH2 0x922 JUMP JUMPDEST DUP4 SSTORE POP JUMPDEST PUSH1 0x1 PUSH1 0x2 DUP9 MUL ADD DUP9 SSTORE POP POP POP JUMPDEST POP POP POP POP POP POP JUMP JUMPDEST PUSH32 0x4E487B7100000000000000000000000000000000000000000000000000000000 PUSH0 MSTORE PUSH1 0x11 PUSH1 0x4 MSTORE PUSH1 0x24 PUSH0 REVERT JUMPDEST PUSH0 PUSH2 0xA5F DUP3 PUSH2 0x569 JUMP JUMPDEST SWAP2 POP PUSH2 0xA6A DUP4 PUSH2 0x569 JUMP JUMPDEST SWAP3 POP DUP3 DUP3 ADD SWAP1 POP DUP1 DUP3 GT ISZERO PUSH2 0xA82 JUMPI PUSH2 0xA81 PUSH2 0xA28 JUMP JUMPDEST JUMPDEST SWAP3 SWAP2 POP POP JUMP INVALID LOG2 PUSH5 0x6970667358 0x22 SLT KECCAK256 MOD MSTORE8 0xE4 ORIGIN CREATE DUP1 0xD2 PUSH22 0x51B6498354D9AD6E89C132EBED9F801F4EC4B928B710 0xC3 0x28 PUSH5 0x736F6C6343 STOP ADDMOD BYTE STOP CALLER "
				},
				"gasEstimates": {
					"creation": {
						"codeDepositCost": "550000",
						"executionCost": "22684",
						"totalCost": "572684"
					},
					"external": {
						"bar()": "infinite",
						"daysUint()": "422",
						"etherUint()": "424",
						"foo()": "infinite",
						"global()": "infinite",
						"gweiUint()": "423",
						"hoursUint()": "446",
						"minutesUnit()": "444",
						"secondsUint()": "444",
						"weeksUint()": "445",
						"weiUint()": "401",
						"x()": "2448",
						"y()": "2470",
						"z()": "infinite"
					}
				},
				"methodIdentifiers": {
					"bar()": "febb0f7e",
					"daysUint()": "cc97e238",
					"etherUint()": "22d05d60",
					"foo()": "c2985578",
					"global()": "a05f9906",
					"gweiUint()": "39ab09a7",
					"hoursUint()": "23004238",
					"minutesUnit()": "f1e6d198",
					"secondsUint()": "6ee41262",
					"weeksUint()": "556b90b2",
					"weiUint()": "2da422fe",
					"x()": "0c55699c",
					"y()": "a56dfe4a",
					"z()": "c5d7802e"
				}
			},
			"storageLayout": {
				"storage": [
					{
						"astId": 4,
						"contract": "First test/05-DataStorage.sol:Variables",
						"label": "x",
						"offset": 0,
						"slot": "0",
						"type": "t_uint256"
					},
					{
						"astId": 6,
						"contract": "First test/05-DataStorage.sol:Variables",
						"label": "y",
						"offset": 0,
						"slot": "1",
						"type": "t_uint256"
					},
					{
						"astId": 8,
						"contract": "First test/05-DataStorage.sol:Variables",
						"label": "z",
						"offset": 0,
						"slot": "2",
						"type": "t_string_storage"
					}
				],
				"types": {
					"t_string_storage": {
						"encoding": "bytes",
						"label": "string",
						"numberOfBytes": "32"
					},
					"t_uint256": {
						"encoding": "inplace",
						"label": "uint256",
						"numberOfBytes": "32"
					}
				}
			},
			"userdoc": {
				"kind": "user",
				"methods": {},
				"version": 1
			}
		}
	}
}