{
	"First test/08.5-deleteInitialValue.sol": {
		"deleteInitialValue": {
			"abi": [
				{
					"inputs": [],
					"name": "_address",
					"outputs": [
						{
							"internalType": "address",
							"name": "",
							"type": "address"
						}
					],
					"stateMutability": "view",
					"type": "function"
				},
				{
					"inputs": [],
					"name": "_bool2",
					"outputs": [
						{
							"internalType": "bool",
							"name": "",
							"type": "bool"
						}
					],
					"stateMutability": "view",
					"type": "function"
				},
				{
					"inputs": [],
					"name": "_enum",
					"outputs": [
						{
							"internalType": "enum deleteInitialValue.ActionSet",
							"name": "",
							"type": "uint8"
						}
					],
					"stateMutability": "view",
					"type": "function"
				},
				{
					"inputs": [
						{
							"internalType": "uint256",
							"name": "",
							"type": "uint256"
						}
					],
					"name": "_staticArray",
					"outputs": [
						{
							"internalType": "uint256",
							"name": "",
							"type": "uint256"
						}
					],
					"stateMutability": "view",
					"type": "function"
				},
				{
					"inputs": [],
					"name": "d",
					"outputs": [],
					"stateMutability": "nonpayable",
					"type": "function"
				},
				{
					"inputs": [],
					"name": "d_address",
					"outputs": [],
					"stateMutability": "nonpayable",
					"type": "function"
				},
				{
					"inputs": [],
					"name": "d_bool",
					"outputs": [],
					"stateMutability": "nonpayable",
					"type": "function"
				},
				{
					"inputs": [],
					"name": "d_enum",
					"outputs": [],
					"stateMutability": "nonpayable",
					"type": "function"
				},
				{
					"inputs": [],
					"name": "d_staticArray",
					"outputs": [],
					"stateMutability": "nonpayable",
					"type": "function"
				},
				{
					"inputs": [],
					"name": "d_student",
					"outputs": [],
					"stateMutability": "nonpayable",
					"type": "function"
				},
				{
					"inputs": [],
					"name": "student",
					"outputs": [
						{
							"internalType": "uint256",
							"name": "id",
							"type": "uint256"
						},
						{
							"internalType": "uint256",
							"name": "score",
							"type": "uint256"
						}
					],
					"stateMutability": "view",
					"type": "function"
				}
			],
			"devdoc": {
				"kind": "dev",
				"methods": {},
				"version": 1
			},
			"evm": {
				"assembly": "    /* \"First test/08.5-deleteInitialValue.sol\":61:1066  contract deleteInitialValue{... */\n  mstore(0x40, 0x80)\n    /* \"First test/08.5-deleteInitialValue.sol\":194:198  true */\n  0x01\n    /* \"First test/08.5-deleteInitialValue.sol\":173:198  bool public _bool2 = true */\n  0x00\n  dup1\n  0x0100\n  exp\n  dup2\n  sload\n  dup2\n  0xff\n  mul\n  not\n  and\n  swap1\n  dup4\n  iszero\n  iszero\n  mul\n  or\n  swap1\n  sstore\n  pop\n    /* \"First test/08.5-deleteInitialValue.sol\":245:246  1 */\n  0x01\n    /* \"First test/08.5-deleteInitialValue.sol\":211:247  address public _address = address(1) */\n  0x00\n  exp(0x0100, 0x01)\n  dup2\n  sload\n  dup2\n  0xffffffffffffffffffffffffffffffffffffffff\n  mul\n  not\n  and\n  swap1\n  dup4\n  0xffffffffffffffffffffffffffffffffffffffff\n  and\n  mul\n  or\n  swap1\n  sstore\n  pop\n    /* \"First test/08.5-deleteInitialValue.sol\":318:331  ActionSet.Buy */\n  0x00\n    /* \"First test/08.5-deleteInitialValue.sol\":293:331  ActionSet public _enum = ActionSet.Buy */\n  dup1\n  exp(0x0100, 0x15)\n  dup2\n  sload\n  dup2\n  0xff\n  mul\n  not\n  and\n  swap1\n  dup4\n  0x02\n  dup2\n  gt\n  iszero\n  tag_1\n  jumpi\n  tag_2\n  tag_3\n  jump\t// in\ntag_2:\ntag_1:\n  mul\n  or\n  swap1\n  sstore\n  pop\n    /* \"First test/08.5-deleteInitialValue.sol\":456:471  Student(10,225) */\n  mload(0x40)\n  dup1\n  0x40\n  add\n  0x40\n  mstore\n  dup1\n    /* \"First test/08.5-deleteInitialValue.sol\":464:466  10 */\n  0x0a\n    /* \"First test/08.5-deleteInitialValue.sol\":456:471  Student(10,225) */\n  dup2\n  mstore\n  0x20\n  add\n    /* \"First test/08.5-deleteInitialValue.sol\":467:470  225 */\n  0xe1\n    /* \"First test/08.5-deleteInitialValue.sol\":456:471  Student(10,225) */\n  dup2\n  mstore\n  pop\n    /* \"First test/08.5-deleteInitialValue.sol\":431:471  Student public student = Student(10,225) */\n  0x01\n  0x00\n  dup3\n  add\n  mload\n  dup2\n  0x00\n  add\n  sstore\n  0x20\n  dup3\n  add\n  mload\n  dup2\n  0x01\n  add\n  sstore\n  pop\n  pop\n    /* \"First test/08.5-deleteInitialValue.sol\":480:527  uint[8] public _staticArray = [1,2,3,4,5,6,7,8] */\n  mload(0x40)\n  dup1\n  0x0100\n  add\n  0x40\n  mstore\n  dup1\n    /* \"First test/08.5-deleteInitialValue.sol\":511:512  1 */\n  0x01\n    /* \"First test/08.5-deleteInitialValue.sol\":480:527  uint[8] public _staticArray = [1,2,3,4,5,6,7,8] */\n  0xff\n  and\n  dup2\n  mstore\n  0x20\n  add\n    /* \"First test/08.5-deleteInitialValue.sol\":513:514  2 */\n  0x02\n    /* \"First test/08.5-deleteInitialValue.sol\":480:527  uint[8] public _staticArray = [1,2,3,4,5,6,7,8] */\n  0xff\n  and\n  dup2\n  mstore\n  0x20\n  add\n    /* \"First test/08.5-deleteInitialValue.sol\":515:516  3 */\n  0x03\n    /* \"First test/08.5-deleteInitialValue.sol\":480:527  uint[8] public _staticArray = [1,2,3,4,5,6,7,8] */\n  0xff\n  and\n  dup2\n  mstore\n  0x20\n  add\n    /* \"First test/08.5-deleteInitialValue.sol\":517:518  4 */\n  0x04\n    /* \"First test/08.5-deleteInitialValue.sol\":480:527  uint[8] public _staticArray = [1,2,3,4,5,6,7,8] */\n  0xff\n  and\n  dup2\n  mstore\n  0x20\n  add\n    /* \"First test/08.5-deleteInitialValue.sol\":519:520  5 */\n  0x05\n    /* \"First test/08.5-deleteInitialValue.sol\":480:527  uint[8] public _staticArray = [1,2,3,4,5,6,7,8] */\n  0xff\n  and\n  dup2\n  mstore\n  0x20\n  add\n    /* \"First test/08.5-deleteInitialValue.sol\":521:522  6 */\n  0x06\n    /* \"First test/08.5-deleteInitialValue.sol\":480:527  uint[8] public _staticArray = [1,2,3,4,5,6,7,8] */\n  0xff\n  and\n  dup2\n  mstore\n  0x20\n  add\n    /* \"First test/08.5-deleteInitialValue.sol\":523:524  7 */\n  0x07\n    /* \"First test/08.5-deleteInitialValue.sol\":480:527  uint[8] public _staticArray = [1,2,3,4,5,6,7,8] */\n  0xff\n  and\n  dup2\n  mstore\n  0x20\n  add\n    /* \"First test/08.5-deleteInitialValue.sol\":525:526  8 */\n  0x08\n    /* \"First test/08.5-deleteInitialValue.sol\":480:527  uint[8] public _staticArray = [1,2,3,4,5,6,7,8] */\n  0xff\n  and\n  dup2\n  mstore\n  pop\n  0x03\n  swap1\n  0x08\n  tag_4\n  swap3\n  swap2\n  swap1\n  tag_5\n  jump\t// in\ntag_4:\n  pop\n    /* \"First test/08.5-deleteInitialValue.sol\":61:1066  contract deleteInitialValue{... */\n  callvalue\n  dup1\n  iszero\n  tag_6\n  jumpi\n  0x00\n  dup1\n  revert\ntag_6:\n  pop\n  jump(tag_7)\ntag_5:\n  dup3\n  0x08\n  dup2\n  add\n  swap3\n  dup3\n  iszero\n  tag_8\n  jumpi\n  swap2\n  0x20\n  mul\n  dup3\n  add\ntag_9:\n  dup3\n  dup2\n  gt\n  iszero\n  tag_10\n  jumpi\n  dup3\n  mload\n  dup3\n  swap1\n  0xff\n  and\n  swap1\n  sstore\n  swap2\n  0x20\n  add\n  swap2\n  swap1\n  0x01\n  add\n  swap1\n  jump(tag_9)\ntag_10:\ntag_8:\n  pop\n  swap1\n  pop\n  tag_11\n  swap2\n  swap1\n  tag_12\n  jump\t// in\ntag_11:\n  pop\n  swap1\n  jump\t// out\ntag_12:\ntag_13:\n  dup1\n  dup3\n  gt\n  iszero\n  tag_14\n  jumpi\n  0x00\n  dup2\n  0x00\n  swap1\n  sstore\n  pop\n  0x01\n  add\n  jump(tag_13)\ntag_14:\n  pop\n  swap1\n  jump\t// out\n    /* \"#utility.yul\":7:187   */\ntag_3:\n    /* \"#utility.yul\":55:132   */\n  0x4e487b7100000000000000000000000000000000000000000000000000000000\n    /* \"#utility.yul\":52:53   */\n  0x00\n    /* \"#utility.yul\":45:133   */\n  mstore\n    /* \"#utility.yul\":152:156   */\n  0x21\n    /* \"#utility.yul\":149:150   */\n  0x04\n    /* \"#utility.yul\":142:157   */\n  mstore\n    /* \"#utility.yul\":176:180   */\n  0x24\n    /* \"#utility.yul\":173:174   */\n  0x00\n    /* \"#utility.yul\":166:181   */\n  revert\n    /* \"First test/08.5-deleteInitialValue.sol\":61:1066  contract deleteInitialValue{... */\ntag_7:\n  dataSize(sub_0)\n  dup1\n  dataOffset(sub_0)\n  0x00\n  codecopy\n  0x00\n  return\nstop\n\nsub_0: assembly {\n        /* \"First test/08.5-deleteInitialValue.sol\":61:1066  contract deleteInitialValue{... */\n      mstore(0x40, 0x80)\n      callvalue\n      dup1\n      iszero\n      tag_1\n      jumpi\n      0x00\n      dup1\n      revert\n    tag_1:\n      pop\n      jumpi(tag_2, lt(calldatasize, 0x04))\n      shr(0xe0, calldataload(0x00))\n      dup1\n      0x8a054ac2\n      gt\n      tag_14\n      jumpi\n      dup1\n      0x8a054ac2\n      eq\n      tag_8\n      jumpi\n      dup1\n      0x9c9b7469\n      eq\n      tag_9\n      jumpi\n      dup1\n      0xa2e7fe8a\n      eq\n      tag_10\n      jumpi\n      dup1\n      0xaad9781c\n      eq\n      tag_11\n      jumpi\n      dup1\n      0xae166f23\n      eq\n      tag_12\n      jumpi\n      dup1\n      0xca2a9b77\n      eq\n      tag_13\n      jumpi\n      jump(tag_2)\n    tag_14:\n      dup1\n      0x12b7b142\n      eq\n      tag_3\n      jumpi\n      dup1\n      0x18bad217\n      eq\n      tag_4\n      jumpi\n      dup1\n      0x30c0826f\n      eq\n      tag_5\n      jumpi\n      dup1\n      0x68b27217\n      eq\n      tag_6\n      jumpi\n      dup1\n      0x699450e8\n      eq\n      tag_7\n      jumpi\n    tag_2:\n      0x00\n      dup1\n      revert\n        /* \"First test/08.5-deleteInitialValue.sol\":480:527  uint[8] public _staticArray = [1,2,3,4,5,6,7,8] */\n    tag_3:\n      tag_15\n      0x04\n      dup1\n      calldatasize\n      sub\n      dup2\n      add\n      swap1\n      tag_16\n      swap2\n      swap1\n      tag_17\n      jump\t// in\n    tag_16:\n      tag_18\n      jump\t// in\n    tag_15:\n      mload(0x40)\n      tag_19\n      swap2\n      swap1\n      tag_20\n      jump\t// in\n    tag_19:\n      mload(0x40)\n      dup1\n      swap2\n      sub\n      swap1\n      return\n        /* \"First test/08.5-deleteInitialValue.sol\":211:247  address public _address = address(1) */\n    tag_4:\n      tag_21\n      tag_22\n      jump\t// in\n    tag_21:\n      mload(0x40)\n      tag_23\n      swap2\n      swap1\n      tag_24\n      jump\t// in\n    tag_23:\n      mload(0x40)\n      dup1\n      swap2\n      sub\n      swap1\n      return\n        /* \"First test/08.5-deleteInitialValue.sol\":293:331  ActionSet public _enum = ActionSet.Buy */\n    tag_5:\n      tag_25\n      tag_26\n      jump\t// in\n    tag_25:\n      mload(0x40)\n      tag_27\n      swap2\n      swap1\n      tag_28\n      jump\t// in\n    tag_27:\n      mload(0x40)\n      dup1\n      swap2\n      sub\n      swap1\n      return\n        /* \"First test/08.5-deleteInitialValue.sol\":661:755  function d_address() external {... */\n    tag_6:\n      tag_29\n      tag_30\n      jump\t// in\n    tag_29:\n      stop\n        /* \"First test/08.5-deleteInitialValue.sol\":431:471  Student public student = Student(10,225) */\n    tag_7:\n      tag_31\n      tag_32\n      jump\t// in\n    tag_31:\n      mload(0x40)\n      tag_33\n      swap3\n      swap2\n      swap1\n      tag_34\n      jump\t// in\n    tag_33:\n      mload(0x40)\n      dup1\n      swap2\n      sub\n      swap1\n      return\n        /* \"First test/08.5-deleteInitialValue.sol\":536:568  function d () external{... */\n    tag_8:\n      tag_35\n      tag_36\n      jump\t// in\n    tag_35:\n      stop\n        /* \"First test/08.5-deleteInitialValue.sol\":574:655  function d_bool() external {... */\n    tag_9:\n      tag_37\n      tag_38\n      jump\t// in\n    tag_37:\n      stop\n        /* \"First test/08.5-deleteInitialValue.sol\":173:198  bool public _bool2 = true */\n    tag_10:\n      tag_39\n      tag_40\n      jump\t// in\n    tag_39:\n      mload(0x40)\n      tag_41\n      swap2\n      swap1\n      tag_42\n      jump\t// in\n    tag_41:\n      mload(0x40)\n      dup1\n      swap2\n      sub\n      swap1\n      return\n        /* \"First test/08.5-deleteInitialValue.sol\":761:852  function d_enum() external {... */\n    tag_11:\n      tag_43\n      tag_44\n      jump\t// in\n    tag_43:\n      stop\n        /* \"First test/08.5-deleteInitialValue.sol\":957:1063  function d_staticArray() external {... */\n    tag_12:\n      tag_45\n      tag_46\n      jump\t// in\n    tag_45:\n      stop\n        /* \"First test/08.5-deleteInitialValue.sol\":858:951  function d_student() external {... */\n    tag_13:\n      tag_47\n      tag_48\n      jump\t// in\n    tag_47:\n      stop\n        /* \"First test/08.5-deleteInitialValue.sol\":480:527  uint[8] public _staticArray = [1,2,3,4,5,6,7,8] */\n    tag_18:\n      0x03\n      dup2\n      0x08\n      dup2\n      lt\n      tag_49\n      jumpi\n      0x00\n      dup1\n      revert\n    tag_49:\n      add\n      0x00\n      swap2\n      pop\n      swap1\n      pop\n      sload\n      dup2\n      jump\t// out\n        /* \"First test/08.5-deleteInitialValue.sol\":211:247  address public _address = address(1) */\n    tag_22:\n      0x00\n      0x01\n      swap1\n      sload\n      swap1\n      0x0100\n      exp\n      swap1\n      div\n      0xffffffffffffffffffffffffffffffffffffffff\n      and\n      dup2\n      jump\t// out\n        /* \"First test/08.5-deleteInitialValue.sol\":293:331  ActionSet public _enum = ActionSet.Buy */\n    tag_26:\n      0x00\n      0x15\n      swap1\n      sload\n      swap1\n      0x0100\n      exp\n      swap1\n      div\n      0xff\n      and\n      dup2\n      jump\t// out\n        /* \"First test/08.5-deleteInitialValue.sol\":661:755  function d_address() external {... */\n    tag_30:\n        /* \"First test/08.5-deleteInitialValue.sol\":709:717  _address */\n      0x00\n      0x01\n        /* \"First test/08.5-deleteInitialValue.sol\":702:717  delete _address */\n      0x0100\n      exp\n      dup2\n      sload\n      swap1\n      0xffffffffffffffffffffffffffffffffffffffff\n      mul\n      not\n      and\n      swap1\n      sstore\n        /* \"First test/08.5-deleteInitialValue.sol\":661:755  function d_address() external {... */\n      jump\t// out\n        /* \"First test/08.5-deleteInitialValue.sol\":431:471  Student public student = Student(10,225) */\n    tag_32:\n      0x01\n      dup1\n      0x00\n      add\n      sload\n      swap1\n      dup1\n      0x01\n      add\n      sload\n      swap1\n      pop\n      dup3\n      jump\t// out\n        /* \"First test/08.5-deleteInitialValue.sol\":536:568  function d () external{... */\n    tag_36:\n      jump\t// out\n        /* \"First test/08.5-deleteInitialValue.sol\":574:655  function d_bool() external {... */\n    tag_38:\n        /* \"First test/08.5-deleteInitialValue.sol\":619:625  _bool2 */\n      0x00\n      dup1\n        /* \"First test/08.5-deleteInitialValue.sol\":612:625  delete _bool2 */\n      0x0100\n      exp\n      dup2\n      sload\n      swap1\n      0xff\n      mul\n      not\n      and\n      swap1\n      sstore\n        /* \"First test/08.5-deleteInitialValue.sol\":574:655  function d_bool() external {... */\n      jump\t// out\n        /* \"First test/08.5-deleteInitialValue.sol\":173:198  bool public _bool2 = true */\n    tag_40:\n      0x00\n      dup1\n      sload\n      swap1\n      0x0100\n      exp\n      swap1\n      div\n      0xff\n      and\n      dup2\n      jump\t// out\n        /* \"First test/08.5-deleteInitialValue.sol\":761:852  function d_enum() external {... */\n    tag_44:\n        /* \"First test/08.5-deleteInitialValue.sol\":806:811  _enum */\n      0x00\n      0x15\n        /* \"First test/08.5-deleteInitialValue.sol\":799:811  delete _enum */\n      0x0100\n      exp\n      dup2\n      sload\n      swap1\n      0xff\n      mul\n      not\n      and\n      swap1\n      sstore\n        /* \"First test/08.5-deleteInitialValue.sol\":761:852  function d_enum() external {... */\n      jump\t// out\n        /* \"First test/08.5-deleteInitialValue.sol\":957:1063  function d_staticArray() external {... */\n    tag_46:\n        /* \"First test/08.5-deleteInitialValue.sol\":1009:1021  _staticArray */\n      0x03\n      0x00\n        /* \"First test/08.5-deleteInitialValue.sol\":1002:1021  delete _staticArray */\n      tag_56\n      swap2\n      swap1\n      tag_57\n      jump\t// in\n    tag_56:\n        /* \"First test/08.5-deleteInitialValue.sol\":957:1063  function d_staticArray() external {... */\n      jump\t// out\n        /* \"First test/08.5-deleteInitialValue.sol\":858:951  function d_student() external {... */\n    tag_48:\n        /* \"First test/08.5-deleteInitialValue.sol\":906:913  student */\n      0x01\n      0x00\n        /* \"First test/08.5-deleteInitialValue.sol\":899:913  delete student */\n      dup1\n      dup3\n      add\n      0x00\n      swap1\n      sstore\n      0x01\n      dup3\n      add\n      0x00\n      swap1\n      sstore\n      pop\n      pop\n        /* \"First test/08.5-deleteInitialValue.sol\":858:951  function d_student() external {... */\n      jump\t// out\n    tag_57:\n      pop\n      dup1\n      0x08\n      add\n      swap1\n      tag_59\n      swap2\n      swap1\n      tag_60\n      jump\t// in\n    tag_59:\n      pop\n      jump\t// out\n    tag_60:\n    tag_61:\n      dup1\n      dup3\n      gt\n      iszero\n      tag_62\n      jumpi\n      0x00\n      dup2\n      0x00\n      swap1\n      sstore\n      pop\n      0x01\n      add\n      jump(tag_61)\n    tag_62:\n      pop\n      swap1\n      jump\t// out\n        /* \"#utility.yul\":88:205   */\n    tag_64:\n        /* \"#utility.yul\":197:198   */\n      0x00\n        /* \"#utility.yul\":194:195   */\n      dup1\n        /* \"#utility.yul\":187:199   */\n      revert\n        /* \"#utility.yul\":334:411   */\n    tag_66:\n        /* \"#utility.yul\":371:378   */\n      0x00\n        /* \"#utility.yul\":400:405   */\n      dup2\n        /* \"#utility.yul\":389:405   */\n      swap1\n      pop\n        /* \"#utility.yul\":334:411   */\n      swap2\n      swap1\n      pop\n      jump\t// out\n        /* \"#utility.yul\":417:539   */\n    tag_67:\n        /* \"#utility.yul\":490:514   */\n      tag_86\n        /* \"#utility.yul\":508:513   */\n      dup2\n        /* \"#utility.yul\":490:514   */\n      tag_66\n      jump\t// in\n    tag_86:\n        /* \"#utility.yul\":483:488   */\n      dup2\n        /* \"#utility.yul\":480:515   */\n      eq\n        /* \"#utility.yul\":470:533   */\n      tag_87\n      jumpi\n        /* \"#utility.yul\":529:530   */\n      0x00\n        /* \"#utility.yul\":526:527   */\n      dup1\n        /* \"#utility.yul\":519:531   */\n      revert\n        /* \"#utility.yul\":470:533   */\n    tag_87:\n        /* \"#utility.yul\":417:539   */\n      pop\n      jump\t// out\n        /* \"#utility.yul\":545:684   */\n    tag_68:\n        /* \"#utility.yul\":591:596   */\n      0x00\n        /* \"#utility.yul\":629:635   */\n      dup2\n        /* \"#utility.yul\":616:636   */\n      calldataload\n        /* \"#utility.yul\":607:636   */\n      swap1\n      pop\n        /* \"#utility.yul\":645:678   */\n      tag_89\n        /* \"#utility.yul\":672:677   */\n      dup2\n        /* \"#utility.yul\":645:678   */\n      tag_67\n      jump\t// in\n    tag_89:\n        /* \"#utility.yul\":545:684   */\n      swap3\n      swap2\n      pop\n      pop\n      jump\t// out\n        /* \"#utility.yul\":690:1019   */\n    tag_17:\n        /* \"#utility.yul\":749:755   */\n      0x00\n        /* \"#utility.yul\":798:800   */\n      0x20\n        /* \"#utility.yul\":786:795   */\n      dup3\n        /* \"#utility.yul\":777:784   */\n      dup5\n        /* \"#utility.yul\":773:796   */\n      sub\n        /* \"#utility.yul\":769:801   */\n      slt\n        /* \"#utility.yul\":766:885   */\n      iszero\n      tag_91\n      jumpi\n        /* \"#utility.yul\":804:883   */\n      tag_92\n      tag_64\n      jump\t// in\n    tag_92:\n        /* \"#utility.yul\":766:885   */\n    tag_91:\n        /* \"#utility.yul\":924:925   */\n      0x00\n        /* \"#utility.yul\":949:1002   */\n      tag_93\n        /* \"#utility.yul\":994:1001   */\n      dup5\n        /* \"#utility.yul\":985:991   */\n      dup3\n        /* \"#utility.yul\":974:983   */\n      dup6\n        /* \"#utility.yul\":970:992   */\n      add\n        /* \"#utility.yul\":949:1002   */\n      tag_68\n      jump\t// in\n    tag_93:\n        /* \"#utility.yul\":939:1002   */\n      swap2\n      pop\n        /* \"#utility.yul\":895:1012   */\n      pop\n        /* \"#utility.yul\":690:1019   */\n      swap3\n      swap2\n      pop\n      pop\n      jump\t// out\n        /* \"#utility.yul\":1025:1143   */\n    tag_69:\n        /* \"#utility.yul\":1112:1136   */\n      tag_95\n        /* \"#utility.yul\":1130:1135   */\n      dup2\n        /* \"#utility.yul\":1112:1136   */\n      tag_66\n      jump\t// in\n    tag_95:\n        /* \"#utility.yul\":1107:1110   */\n      dup3\n        /* \"#utility.yul\":1100:1137   */\n      mstore\n        /* \"#utility.yul\":1025:1143   */\n      pop\n      pop\n      jump\t// out\n        /* \"#utility.yul\":1149:1371   */\n    tag_20:\n        /* \"#utility.yul\":1242:1246   */\n      0x00\n        /* \"#utility.yul\":1280:1282   */\n      0x20\n        /* \"#utility.yul\":1269:1278   */\n      dup3\n        /* \"#utility.yul\":1265:1283   */\n      add\n        /* \"#utility.yul\":1257:1283   */\n      swap1\n      pop\n        /* \"#utility.yul\":1293:1364   */\n      tag_97\n        /* \"#utility.yul\":1361:1362   */\n      0x00\n        /* \"#utility.yul\":1350:1359   */\n      dup4\n        /* \"#utility.yul\":1346:1363   */\n      add\n        /* \"#utility.yul\":1337:1343   */\n      dup5\n        /* \"#utility.yul\":1293:1364   */\n      tag_69\n      jump\t// in\n    tag_97:\n        /* \"#utility.yul\":1149:1371   */\n      swap3\n      swap2\n      pop\n      pop\n      jump\t// out\n        /* \"#utility.yul\":1377:1503   */\n    tag_70:\n        /* \"#utility.yul\":1414:1421   */\n      0x00\n        /* \"#utility.yul\":1454:1496   */\n      0xffffffffffffffffffffffffffffffffffffffff\n        /* \"#utility.yul\":1447:1452   */\n      dup3\n        /* \"#utility.yul\":1443:1497   */\n      and\n        /* \"#utility.yul\":1432:1497   */\n      swap1\n      pop\n        /* \"#utility.yul\":1377:1503   */\n      swap2\n      swap1\n      pop\n      jump\t// out\n        /* \"#utility.yul\":1509:1605   */\n    tag_71:\n        /* \"#utility.yul\":1546:1553   */\n      0x00\n        /* \"#utility.yul\":1575:1599   */\n      tag_100\n        /* \"#utility.yul\":1593:1598   */\n      dup3\n        /* \"#utility.yul\":1575:1599   */\n      tag_70\n      jump\t// in\n    tag_100:\n        /* \"#utility.yul\":1564:1599   */\n      swap1\n      pop\n        /* \"#utility.yul\":1509:1605   */\n      swap2\n      swap1\n      pop\n      jump\t// out\n        /* \"#utility.yul\":1611:1729   */\n    tag_72:\n        /* \"#utility.yul\":1698:1722   */\n      tag_102\n        /* \"#utility.yul\":1716:1721   */\n      dup2\n        /* \"#utility.yul\":1698:1722   */\n      tag_71\n      jump\t// in\n    tag_102:\n        /* \"#utility.yul\":1693:1696   */\n      dup3\n        /* \"#utility.yul\":1686:1723   */\n      mstore\n        /* \"#utility.yul\":1611:1729   */\n      pop\n      pop\n      jump\t// out\n        /* \"#utility.yul\":1735:1957   */\n    tag_24:\n        /* \"#utility.yul\":1828:1832   */\n      0x00\n        /* \"#utility.yul\":1866:1868   */\n      0x20\n        /* \"#utility.yul\":1855:1864   */\n      dup3\n        /* \"#utility.yul\":1851:1869   */\n      add\n        /* \"#utility.yul\":1843:1869   */\n      swap1\n      pop\n        /* \"#utility.yul\":1879:1950   */\n      tag_104\n        /* \"#utility.yul\":1947:1948   */\n      0x00\n        /* \"#utility.yul\":1936:1945   */\n      dup4\n        /* \"#utility.yul\":1932:1949   */\n      add\n        /* \"#utility.yul\":1923:1929   */\n      dup5\n        /* \"#utility.yul\":1879:1950   */\n      tag_72\n      jump\t// in\n    tag_104:\n        /* \"#utility.yul\":1735:1957   */\n      swap3\n      swap2\n      pop\n      pop\n      jump\t// out\n        /* \"#utility.yul\":1963:2143   */\n    tag_73:\n        /* \"#utility.yul\":2011:2088   */\n      0x4e487b7100000000000000000000000000000000000000000000000000000000\n        /* \"#utility.yul\":2008:2009   */\n      0x00\n        /* \"#utility.yul\":2001:2089   */\n      mstore\n        /* \"#utility.yul\":2108:2112   */\n      0x21\n        /* \"#utility.yul\":2105:2106   */\n      0x04\n        /* \"#utility.yul\":2098:2113   */\n      mstore\n        /* \"#utility.yul\":2132:2136   */\n      0x24\n        /* \"#utility.yul\":2129:2130   */\n      0x00\n        /* \"#utility.yul\":2122:2137   */\n      revert\n        /* \"#utility.yul\":2149:2266   */\n    tag_74:\n        /* \"#utility.yul\":2234:2235   */\n      0x03\n        /* \"#utility.yul\":2227:2232   */\n      dup2\n        /* \"#utility.yul\":2224:2236   */\n      lt\n        /* \"#utility.yul\":2214:2260   */\n      tag_107\n      jumpi\n        /* \"#utility.yul\":2240:2258   */\n      tag_108\n      tag_73\n      jump\t// in\n    tag_108:\n        /* \"#utility.yul\":2214:2260   */\n    tag_107:\n        /* \"#utility.yul\":2149:2266   */\n      pop\n      jump\t// out\n        /* \"#utility.yul\":2272:2407   */\n    tag_75:\n        /* \"#utility.yul\":2321:2328   */\n      0x00\n        /* \"#utility.yul\":2350:2355   */\n      dup2\n        /* \"#utility.yul\":2339:2355   */\n      swap1\n      pop\n        /* \"#utility.yul\":2356:2401   */\n      tag_110\n        /* \"#utility.yul\":2395:2400   */\n      dup3\n        /* \"#utility.yul\":2356:2401   */\n      tag_74\n      jump\t// in\n    tag_110:\n        /* \"#utility.yul\":2272:2407   */\n      swap2\n      swap1\n      pop\n      jump\t// out\n        /* \"#utility.yul\":2413:2548   */\n    tag_76:\n        /* \"#utility.yul\":2473:2482   */\n      0x00\n        /* \"#utility.yul\":2506:2542   */\n      tag_112\n        /* \"#utility.yul\":2536:2541   */\n      dup3\n        /* \"#utility.yul\":2506:2542   */\n      tag_75\n      jump\t// in\n    tag_112:\n        /* \"#utility.yul\":2493:2542   */\n      swap1\n      pop\n        /* \"#utility.yul\":2413:2548   */\n      swap2\n      swap1\n      pop\n      jump\t// out\n        /* \"#utility.yul\":2554:2705   */\n    tag_77:\n        /* \"#utility.yul\":2651:2698   */\n      tag_114\n        /* \"#utility.yul\":2692:2697   */\n      dup2\n        /* \"#utility.yul\":2651:2698   */\n      tag_76\n      jump\t// in\n    tag_114:\n        /* \"#utility.yul\":2646:2649   */\n      dup3\n        /* \"#utility.yul\":2639:2699   */\n      mstore\n        /* \"#utility.yul\":2554:2705   */\n      pop\n      pop\n      jump\t// out\n        /* \"#utility.yul\":2711:2953   */\n    tag_28:\n        /* \"#utility.yul\":2814:2818   */\n      0x00\n        /* \"#utility.yul\":2852:2854   */\n      0x20\n        /* \"#utility.yul\":2841:2850   */\n      dup3\n        /* \"#utility.yul\":2837:2855   */\n      add\n        /* \"#utility.yul\":2829:2855   */\n      swap1\n      pop\n        /* \"#utility.yul\":2865:2946   */\n      tag_116\n        /* \"#utility.yul\":2943:2944   */\n      0x00\n        /* \"#utility.yul\":2932:2941   */\n      dup4\n        /* \"#utility.yul\":2928:2945   */\n      add\n        /* \"#utility.yul\":2919:2925   */\n      dup5\n        /* \"#utility.yul\":2865:2946   */\n      tag_77\n      jump\t// in\n    tag_116:\n        /* \"#utility.yul\":2711:2953   */\n      swap3\n      swap2\n      pop\n      pop\n      jump\t// out\n        /* \"#utility.yul\":2959:3291   */\n    tag_34:\n        /* \"#utility.yul\":3080:3084   */\n      0x00\n        /* \"#utility.yul\":3118:3120   */\n      0x40\n        /* \"#utility.yul\":3107:3116   */\n      dup3\n        /* \"#utility.yul\":3103:3121   */\n      add\n        /* \"#utility.yul\":3095:3121   */\n      swap1\n      pop\n        /* \"#utility.yul\":3131:3202   */\n      tag_118\n        /* \"#utility.yul\":3199:3200   */\n      0x00\n        /* \"#utility.yul\":3188:3197   */\n      dup4\n        /* \"#utility.yul\":3184:3201   */\n      add\n        /* \"#utility.yul\":3175:3181   */\n      dup6\n        /* \"#utility.yul\":3131:3202   */\n      tag_69\n      jump\t// in\n    tag_118:\n        /* \"#utility.yul\":3212:3284   */\n      tag_119\n        /* \"#utility.yul\":3280:3282   */\n      0x20\n        /* \"#utility.yul\":3269:3278   */\n      dup4\n        /* \"#utility.yul\":3265:3283   */\n      add\n        /* \"#utility.yul\":3256:3262   */\n      dup5\n        /* \"#utility.yul\":3212:3284   */\n      tag_69\n      jump\t// in\n    tag_119:\n        /* \"#utility.yul\":2959:3291   */\n      swap4\n      swap3\n      pop\n      pop\n      pop\n      jump\t// out\n        /* \"#utility.yul\":3297:3387   */\n    tag_78:\n        /* \"#utility.yul\":3331:3338   */\n      0x00\n        /* \"#utility.yul\":3374:3379   */\n      dup2\n        /* \"#utility.yul\":3367:3380   */\n      iszero\n        /* \"#utility.yul\":3360:3381   */\n      iszero\n        /* \"#utility.yul\":3349:3381   */\n      swap1\n      pop\n        /* \"#utility.yul\":3297:3387   */\n      swap2\n      swap1\n      pop\n      jump\t// out\n        /* \"#utility.yul\":3393:3502   */\n    tag_79:\n        /* \"#utility.yul\":3474:3495   */\n      tag_122\n        /* \"#utility.yul\":3489:3494   */\n      dup2\n        /* \"#utility.yul\":3474:3495   */\n      tag_78\n      jump\t// in\n    tag_122:\n        /* \"#utility.yul\":3469:3472   */\n      dup3\n        /* \"#utility.yul\":3462:3496   */\n      mstore\n        /* \"#utility.yul\":3393:3502   */\n      pop\n      pop\n      jump\t// out\n        /* \"#utility.yul\":3508:3718   */\n    tag_42:\n        /* \"#utility.yul\":3595:3599   */\n      0x00\n        /* \"#utility.yul\":3633:3635   */\n      0x20\n        /* \"#utility.yul\":3622:3631   */\n      dup3\n        /* \"#utility.yul\":3618:3636   */\n      add\n        /* \"#utility.yul\":3610:3636   */\n      swap1\n      pop\n        /* \"#utility.yul\":3646:3711   */\n      tag_124\n        /* \"#utility.yul\":3708:3709   */\n      0x00\n        /* \"#utility.yul\":3697:3706   */\n      dup4\n        /* \"#utility.yul\":3693:3710   */\n      add\n        /* \"#utility.yul\":3684:3690   */\n      dup5\n        /* \"#utility.yul\":3646:3711   */\n      tag_79\n      jump\t// in\n    tag_124:\n        /* \"#utility.yul\":3508:3718   */\n      swap3\n      swap2\n      pop\n      pop\n      jump\t// out\n\n    auxdata: 0xa2646970667358221220b7d23fcecca5fc6fb1ca819cfc2017998ee2522fc6e030f923d046fba4c84d5864736f6c634300081a0033\n}\n",
				"bytecode": {
					"linkReferences": {},
					"object": "608060405260015f806101000a81548160ff02191690831515021790555060015f60016101000a81548173ffffffffffffffffffffffffffffffffffffffff021916908373ffffffffffffffffffffffffffffffffffffffff1602179055505f8060156101000a81548160ff0219169083600281111561008257610081610190565b5b02179055506040518060400160405280600a815260200160e181525060015f820151815f0155602082015181600101555050604051806101000160405280600160ff168152602001600260ff168152602001600360ff168152602001600460ff168152602001600560ff168152602001600660ff168152602001600760ff168152602001600860ff16815250600390600861011e929190610130565b5034801561012a575f80fd5b506101bd565b8260088101928215610164579160200282015b82811115610163578251829060ff16905591602001919060010190610143565b5b5090506101719190610175565b5090565b5b8082111561018c575f815f905550600101610176565b5090565b7f4e487b71000000000000000000000000000000000000000000000000000000005f52602160045260245ffd5b61049d806101ca5f395ff3fe608060405234801561000f575f80fd5b50600436106100a7575f3560e01c80638a054ac21161006f5780638a054ac2146101405780639c9b74691461014a578063a2e7fe8a14610154578063aad9781c14610172578063ae166f231461017c578063ca2a9b7714610186576100a7565b806312b7b142146100ab57806318bad217146100db57806330c0826f146100f957806368b2721714610117578063699450e814610121575b5f80fd5b6100c560048036038101906100c091906102d6565b610190565b6040516100d29190610310565b60405180910390f35b6100e36101a9565b6040516100f09190610368565b60405180910390f35b6101016101ce565b60405161010e91906103f4565b60405180910390f35b61011f6101e0565b005b610129610206565b60405161013792919061040d565b60405180910390f35b610148610217565b005b610152610219565b005b61015c61022b565b604051610169919061044e565b60405180910390f35b61017a61023b565b005b61018461024e565b005b61018e61025d565b005b6003816008811061019f575f80fd5b015f915090505481565b5f60019054906101000a900473ffffffffffffffffffffffffffffffffffffffff1681565b5f60159054906101000a900460ff1681565b5f60016101000a81549073ffffffffffffffffffffffffffffffffffffffff0219169055565b6001805f0154908060010154905082565b565b5f806101000a81549060ff0219169055565b5f8054906101000a900460ff1681565b5f60156101000a81549060ff0219169055565b60035f61025b9190610271565b565b60015f8082015f9055600182015f90555050565b5080600801906102819190610284565b50565b5b8082111561029b575f815f905550600101610285565b5090565b5f80fd5b5f819050919050565b6102b5816102a3565b81146102bf575f80fd5b50565b5f813590506102d0816102ac565b92915050565b5f602082840312156102eb576102ea61029f565b5b5f6102f8848285016102c2565b91505092915050565b61030a816102a3565b82525050565b5f6020820190506103235f830184610301565b92915050565b5f73ffffffffffffffffffffffffffffffffffffffff82169050919050565b5f61035282610329565b9050919050565b61036281610348565b82525050565b5f60208201905061037b5f830184610359565b92915050565b7f4e487b71000000000000000000000000000000000000000000000000000000005f52602160045260245ffd5b600381106103bf576103be610381565b5b50565b5f8190506103cf826103ae565b919050565b5f6103de826103c2565b9050919050565b6103ee816103d4565b82525050565b5f6020820190506104075f8301846103e5565b92915050565b5f6040820190506104205f830185610301565b61042d6020830184610301565b9392505050565b5f8115159050919050565b61044881610434565b82525050565b5f6020820190506104615f83018461043f565b9291505056fea2646970667358221220b7d23fcecca5fc6fb1ca819cfc2017998ee2522fc6e030f923d046fba4c84d5864736f6c634300081a0033",
					"opcodes": "PUSH1 0x80 PUSH1 0x40 MSTORE PUSH1 0x1 PUSH0 DUP1 PUSH2 0x100 EXP DUP2 SLOAD DUP2 PUSH1 0xFF MUL NOT AND SWAP1 DUP4 ISZERO ISZERO MUL OR SWAP1 SSTORE POP PUSH1 0x1 PUSH0 PUSH1 0x1 PUSH2 0x100 EXP DUP2 SLOAD DUP2 PUSH20 0xFFFFFFFFFFFFFFFFFFFFFFFFFFFFFFFFFFFFFFFF MUL NOT AND SWAP1 DUP4 PUSH20 0xFFFFFFFFFFFFFFFFFFFFFFFFFFFFFFFFFFFFFFFF AND MUL OR SWAP1 SSTORE POP PUSH0 DUP1 PUSH1 0x15 PUSH2 0x100 EXP DUP2 SLOAD DUP2 PUSH1 0xFF MUL NOT AND SWAP1 DUP4 PUSH1 0x2 DUP2 GT ISZERO PUSH2 0x82 JUMPI PUSH2 0x81 PUSH2 0x190 JUMP JUMPDEST JUMPDEST MUL OR SWAP1 SSTORE POP PUSH1 0x40 MLOAD DUP1 PUSH1 0x40 ADD PUSH1 0x40 MSTORE DUP1 PUSH1 0xA DUP2 MSTORE PUSH1 0x20 ADD PUSH1 0xE1 DUP2 MSTORE POP PUSH1 0x1 PUSH0 DUP3 ADD MLOAD DUP2 PUSH0 ADD SSTORE PUSH1 0x20 DUP3 ADD MLOAD DUP2 PUSH1 0x1 ADD SSTORE POP POP PUSH1 0x40 MLOAD DUP1 PUSH2 0x100 ADD PUSH1 0x40 MSTORE DUP1 PUSH1 0x1 PUSH1 0xFF AND DUP2 MSTORE PUSH1 0x20 ADD PUSH1 0x2 PUSH1 0xFF AND DUP2 MSTORE PUSH1 0x20 ADD PUSH1 0x3 PUSH1 0xFF AND DUP2 MSTORE PUSH1 0x20 ADD PUSH1 0x4 PUSH1 0xFF AND DUP2 MSTORE PUSH1 0x20 ADD PUSH1 0x5 PUSH1 0xFF AND DUP2 MSTORE PUSH1 0x20 ADD PUSH1 0x6 PUSH1 0xFF AND DUP2 MSTORE PUSH1 0x20 ADD PUSH1 0x7 PUSH1 0xFF AND DUP2 MSTORE PUSH1 0x20 ADD PUSH1 0x8 PUSH1 0xFF AND DUP2 MSTORE POP PUSH1 0x3 SWAP1 PUSH1 0x8 PUSH2 0x11E SWAP3 SWAP2 SWAP1 PUSH2 0x130 JUMP JUMPDEST POP CALLVALUE DUP1 ISZERO PUSH2 0x12A JUMPI PUSH0 DUP1 REVERT JUMPDEST POP PUSH2 0x1BD JUMP JUMPDEST DUP3 PUSH1 0x8 DUP2 ADD SWAP3 DUP3 ISZERO PUSH2 0x164 JUMPI SWAP2 PUSH1 0x20 MUL DUP3 ADD JUMPDEST DUP3 DUP2 GT ISZERO PUSH2 0x163 JUMPI DUP3 MLOAD DUP3 SWAP1 PUSH1 0xFF AND SWAP1 SSTORE SWAP2 PUSH1 0x20 ADD SWAP2 SWAP1 PUSH1 0x1 ADD SWAP1 PUSH2 0x143 JUMP JUMPDEST JUMPDEST POP SWAP1 POP PUSH2 0x171 SWAP2 SWAP1 PUSH2 0x175 JUMP JUMPDEST POP SWAP1 JUMP JUMPDEST JUMPDEST DUP1 DUP3 GT ISZERO PUSH2 0x18C JUMPI PUSH0 DUP2 PUSH0 SWAP1 SSTORE POP PUSH1 0x1 ADD PUSH2 0x176 JUMP JUMPDEST POP SWAP1 JUMP JUMPDEST PUSH32 0x4E487B7100000000000000000000000000000000000000000000000000000000 PUSH0 MSTORE PUSH1 0x21 PUSH1 0x4 MSTORE PUSH1 0x24 PUSH0 REVERT JUMPDEST PUSH2 0x49D DUP1 PUSH2 0x1CA PUSH0 CODECOPY PUSH0 RETURN INVALID PUSH1 0x80 PUSH1 0x40 MSTORE CALLVALUE DUP1 ISZERO PUSH2 0xF JUMPI PUSH0 DUP1 REVERT JUMPDEST POP PUSH1 0x4 CALLDATASIZE LT PUSH2 0xA7 JUMPI PUSH0 CALLDATALOAD PUSH1 0xE0 SHR DUP1 PUSH4 0x8A054AC2 GT PUSH2 0x6F JUMPI DUP1 PUSH4 0x8A054AC2 EQ PUSH2 0x140 JUMPI DUP1 PUSH4 0x9C9B7469 EQ PUSH2 0x14A JUMPI DUP1 PUSH4 0xA2E7FE8A EQ PUSH2 0x154 JUMPI DUP1 PUSH4 0xAAD9781C EQ PUSH2 0x172 JUMPI DUP1 PUSH4 0xAE166F23 EQ PUSH2 0x17C JUMPI DUP1 PUSH4 0xCA2A9B77 EQ PUSH2 0x186 JUMPI PUSH2 0xA7 JUMP JUMPDEST DUP1 PUSH4 0x12B7B142 EQ PUSH2 0xAB JUMPI DUP1 PUSH4 0x18BAD217 EQ PUSH2 0xDB JUMPI DUP1 PUSH4 0x30C0826F EQ PUSH2 0xF9 JUMPI DUP1 PUSH4 0x68B27217 EQ PUSH2 0x117 JUMPI DUP1 PUSH4 0x699450E8 EQ PUSH2 0x121 JUMPI JUMPDEST PUSH0 DUP1 REVERT JUMPDEST PUSH2 0xC5 PUSH1 0x4 DUP1 CALLDATASIZE SUB DUP2 ADD SWAP1 PUSH2 0xC0 SWAP2 SWAP1 PUSH2 0x2D6 JUMP JUMPDEST PUSH2 0x190 JUMP JUMPDEST PUSH1 0x40 MLOAD PUSH2 0xD2 SWAP2 SWAP1 PUSH2 0x310 JUMP JUMPDEST PUSH1 0x40 MLOAD DUP1 SWAP2 SUB SWAP1 RETURN JUMPDEST PUSH2 0xE3 PUSH2 0x1A9 JUMP JUMPDEST PUSH1 0x40 MLOAD PUSH2 0xF0 SWAP2 SWAP1 PUSH2 0x368 JUMP JUMPDEST PUSH1 0x40 MLOAD DUP1 SWAP2 SUB SWAP1 RETURN JUMPDEST PUSH2 0x101 PUSH2 0x1CE JUMP JUMPDEST PUSH1 0x40 MLOAD PUSH2 0x10E SWAP2 SWAP1 PUSH2 0x3F4 JUMP JUMPDEST PUSH1 0x40 MLOAD DUP1 SWAP2 SUB SWAP1 RETURN JUMPDEST PUSH2 0x11F PUSH2 0x1E0 JUMP JUMPDEST STOP JUMPDEST PUSH2 0x129 PUSH2 0x206 JUMP JUMPDEST PUSH1 0x40 MLOAD PUSH2 0x137 SWAP3 SWAP2 SWAP1 PUSH2 0x40D JUMP JUMPDEST PUSH1 0x40 MLOAD DUP1 SWAP2 SUB SWAP1 RETURN JUMPDEST PUSH2 0x148 PUSH2 0x217 JUMP JUMPDEST STOP JUMPDEST PUSH2 0x152 PUSH2 0x219 JUMP JUMPDEST STOP JUMPDEST PUSH2 0x15C PUSH2 0x22B JUMP JUMPDEST PUSH1 0x40 MLOAD PUSH2 0x169 SWAP2 SWAP1 PUSH2 0x44E JUMP JUMPDEST PUSH1 0x40 MLOAD DUP1 SWAP2 SUB SWAP1 RETURN JUMPDEST PUSH2 0x17A PUSH2 0x23B JUMP JUMPDEST STOP JUMPDEST PUSH2 0x184 PUSH2 0x24E JUMP JUMPDEST STOP JUMPDEST PUSH2 0x18E PUSH2 0x25D JUMP JUMPDEST STOP JUMPDEST PUSH1 0x3 DUP2 PUSH1 0x8 DUP2 LT PUSH2 0x19F JUMPI PUSH0 DUP1 REVERT JUMPDEST ADD PUSH0 SWAP2 POP SWAP1 POP SLOAD DUP2 JUMP JUMPDEST PUSH0 PUSH1 0x1 SWAP1 SLOAD SWAP1 PUSH2 0x100 EXP SWAP1 DIV PUSH20 0xFFFFFFFFFFFFFFFFFFFFFFFFFFFFFFFFFFFFFFFF AND DUP2 JUMP JUMPDEST PUSH0 PUSH1 0x15 SWAP1 SLOAD SWAP1 PUSH2 0x100 EXP SWAP1 DIV PUSH1 0xFF AND DUP2 JUMP JUMPDEST PUSH0 PUSH1 0x1 PUSH2 0x100 EXP DUP2 SLOAD SWAP1 PUSH20 0xFFFFFFFFFFFFFFFFFFFFFFFFFFFFFFFFFFFFFFFF MUL NOT AND SWAP1 SSTORE JUMP JUMPDEST PUSH1 0x1 DUP1 PUSH0 ADD SLOAD SWAP1 DUP1 PUSH1 0x1 ADD SLOAD SWAP1 POP DUP3 JUMP JUMPDEST JUMP JUMPDEST PUSH0 DUP1 PUSH2 0x100 EXP DUP2 SLOAD SWAP1 PUSH1 0xFF MUL NOT AND SWAP1 SSTORE JUMP JUMPDEST PUSH0 DUP1 SLOAD SWAP1 PUSH2 0x100 EXP SWAP1 DIV PUSH1 0xFF AND DUP2 JUMP JUMPDEST PUSH0 PUSH1 0x15 PUSH2 0x100 EXP DUP2 SLOAD SWAP1 PUSH1 0xFF MUL NOT AND SWAP1 SSTORE JUMP JUMPDEST PUSH1 0x3 PUSH0 PUSH2 0x25B SWAP2 SWAP1 PUSH2 0x271 JUMP JUMPDEST JUMP JUMPDEST PUSH1 0x1 PUSH0 DUP1 DUP3 ADD PUSH0 SWAP1 SSTORE PUSH1 0x1 DUP3 ADD PUSH0 SWAP1 SSTORE POP POP JUMP JUMPDEST POP DUP1 PUSH1 0x8 ADD SWAP1 PUSH2 0x281 SWAP2 SWAP1 PUSH2 0x284 JUMP JUMPDEST POP JUMP JUMPDEST JUMPDEST DUP1 DUP3 GT ISZERO PUSH2 0x29B JUMPI PUSH0 DUP2 PUSH0 SWAP1 SSTORE POP PUSH1 0x1 ADD PUSH2 0x285 JUMP JUMPDEST POP SWAP1 JUMP JUMPDEST PUSH0 DUP1 REVERT JUMPDEST PUSH0 DUP2 SWAP1 POP SWAP2 SWAP1 POP JUMP JUMPDEST PUSH2 0x2B5 DUP2 PUSH2 0x2A3 JUMP JUMPDEST DUP2 EQ PUSH2 0x2BF JUMPI PUSH0 DUP1 REVERT JUMPDEST POP JUMP JUMPDEST PUSH0 DUP2 CALLDATALOAD SWAP1 POP PUSH2 0x2D0 DUP2 PUSH2 0x2AC JUMP JUMPDEST SWAP3 SWAP2 POP POP JUMP JUMPDEST PUSH0 PUSH1 0x20 DUP3 DUP5 SUB SLT ISZERO PUSH2 0x2EB JUMPI PUSH2 0x2EA PUSH2 0x29F JUMP JUMPDEST JUMPDEST PUSH0 PUSH2 0x2F8 DUP5 DUP3 DUP6 ADD PUSH2 0x2C2 JUMP JUMPDEST SWAP2 POP POP SWAP3 SWAP2 POP POP JUMP JUMPDEST PUSH2 0x30A DUP2 PUSH2 0x2A3 JUMP JUMPDEST DUP3 MSTORE POP POP JUMP JUMPDEST PUSH0 PUSH1 0x20 DUP3 ADD SWAP1 POP PUSH2 0x323 PUSH0 DUP4 ADD DUP5 PUSH2 0x301 JUMP JUMPDEST SWAP3 SWAP2 POP POP JUMP JUMPDEST PUSH0 PUSH20 0xFFFFFFFFFFFFFFFFFFFFFFFFFFFFFFFFFFFFFFFF DUP3 AND SWAP1 POP SWAP2 SWAP1 POP JUMP JUMPDEST PUSH0 PUSH2 0x352 DUP3 PUSH2 0x329 JUMP JUMPDEST SWAP1 POP SWAP2 SWAP1 POP JUMP JUMPDEST PUSH2 0x362 DUP2 PUSH2 0x348 JUMP JUMPDEST DUP3 MSTORE POP POP JUMP JUMPDEST PUSH0 PUSH1 0x20 DUP3 ADD SWAP1 POP PUSH2 0x37B PUSH0 DUP4 ADD DUP5 PUSH2 0x359 JUMP JUMPDEST SWAP3 SWAP2 POP POP JUMP JUMPDEST PUSH32 0x4E487B7100000000000000000000000000000000000000000000000000000000 PUSH0 MSTORE PUSH1 0x21 PUSH1 0x4 MSTORE PUSH1 0x24 PUSH0 REVERT JUMPDEST PUSH1 0x3 DUP2 LT PUSH2 0x3BF JUMPI PUSH2 0x3BE PUSH2 0x381 JUMP JUMPDEST JUMPDEST POP JUMP JUMPDEST PUSH0 DUP2 SWAP1 POP PUSH2 0x3CF DUP3 PUSH2 0x3AE JUMP JUMPDEST SWAP2 SWAP1 POP JUMP JUMPDEST PUSH0 PUSH2 0x3DE DUP3 PUSH2 0x3C2 JUMP JUMPDEST SWAP1 POP SWAP2 SWAP1 POP JUMP JUMPDEST PUSH2 0x3EE DUP2 PUSH2 0x3D4 JUMP JUMPDEST DUP3 MSTORE POP POP JUMP JUMPDEST PUSH0 PUSH1 0x20 DUP3 ADD SWAP1 POP PUSH2 0x407 PUSH0 DUP4 ADD DUP5 PUSH2 0x3E5 JUMP JUMPDEST SWAP3 SWAP2 POP POP JUMP JUMPDEST PUSH0 PUSH1 0x40 DUP3 ADD SWAP1 POP PUSH2 0x420 PUSH0 DUP4 ADD DUP6 PUSH2 0x301 JUMP JUMPDEST PUSH2 0x42D PUSH1 0x20 DUP4 ADD DUP5 PUSH2 0x301 JUMP JUMPDEST SWAP4 SWAP3 POP POP POP JUMP JUMPDEST PUSH0 DUP2 ISZERO ISZERO SWAP1 POP SWAP2 SWAP1 POP JUMP JUMPDEST PUSH2 0x448 DUP2 PUSH2 0x434 JUMP JUMPDEST DUP3 MSTORE POP POP JUMP JUMPDEST PUSH0 PUSH1 0x20 DUP3 ADD SWAP1 POP PUSH2 0x461 PUSH0 DUP4 ADD DUP5 PUSH2 0x43F JUMP JUMPDEST SWAP3 SWAP2 POP POP JUMP INVALID LOG2 PUSH5 0x6970667358 0x22 SLT KECCAK256 0xB7 0xD2 EXTCODEHASH 0xCE 0xCC 0xA5 0xFC PUSH16 0xB1CA819CFC2017998EE2522FC6E030F9 0x23 0xD0 CHAINID 0xFB LOG4 0xC8 0x4D PC PUSH5 0x736F6C6343 STOP ADDMOD BYTE STOP CALLER "
				},
				"gasEstimates": {
					"creation": {
						"codeDepositCost": "236200",
						"executionCost": "infinite",
						"totalCost": "infinite"
					},
					"external": {
						"_address()": "2581",
						"_bool2()": "2507",
						"_enum()": "2649",
						"_staticArray(uint256)": "infinite",
						"d()": "143",
						"d_address()": "24501",
						"d_bool()": "24406",
						"d_enum()": "24500",
						"d_staticArray()": "infinite",
						"d_student()": "10290",
						"student()": "infinite"
					}
				},
				"methodIdentifiers": {
					"_address()": "18bad217",
					"_bool2()": "a2e7fe8a",
					"_enum()": "30c0826f",
					"_staticArray(uint256)": "12b7b142",
					"d()": "8a054ac2",
					"d_address()": "68b27217",
					"d_bool()": "9c9b7469",
					"d_enum()": "aad9781c",
					"d_staticArray()": "ae166f23",
					"d_student()": "ca2a9b77",
					"student()": "699450e8"
				}
			},
			"storageLayout": {
				"storage": [
					{
						"astId": 4,
						"contract": "First test/08.5-deleteInitialValue.sol:deleteInitialValue",
						"label": "_bool2",
						"offset": 0,
						"slot": "0",
						"type": "t_bool"
					},
					{
						"astId": 10,
						"contract": "First test/08.5-deleteInitialValue.sol:deleteInitialValue",
						"label": "_address",
						"offset": 1,
						"slot": "0",
						"type": "t_address"
					},
					{
						"astId": 19,
						"contract": "First test/08.5-deleteInitialValue.sol:deleteInitialValue",
						"label": "_enum",
						"offset": 21,
						"slot": "0",
						"type": "t_enum(ActionSet)14"
					},
					{
						"astId": 31,
						"contract": "First test/08.5-deleteInitialValue.sol:deleteInitialValue",
						"label": "student",
						"offset": 0,
						"slot": "1",
						"type": "t_struct(Student)24_storage"
					},
					{
						"astId": 44,
						"contract": "First test/08.5-deleteInitialValue.sol:deleteInitialValue",
						"label": "_staticArray",
						"offset": 0,
						"slot": "3",
						"type": "t_array(t_uint256)8_storage"
					}
				],
				"types": {
					"t_address": {
						"encoding": "inplace",
						"label": "address",
						"numberOfBytes": "20"
					},
					"t_array(t_uint256)8_storage": {
						"base": "t_uint256",
						"encoding": "inplace",
						"label": "uint256[8]",
						"numberOfBytes": "256"
					},
					"t_bool": {
						"encoding": "inplace",
						"label": "bool",
						"numberOfBytes": "1"
					},
					"t_enum(ActionSet)14": {
						"encoding": "inplace",
						"label": "enum deleteInitialValue.ActionSet",
						"numberOfBytes": "1"
					},
					"t_struct(Student)24_storage": {
						"encoding": "inplace",
						"label": "struct deleteInitialValue.Student",
						"members": [
							{
								"astId": 21,
								"contract": "First test/08.5-deleteInitialValue.sol:deleteInitialValue",
								"label": "id",
								"offset": 0,
								"slot": "0",
								"type": "t_uint256"
							},
							{
								"astId": 23,
								"contract": "First test/08.5-deleteInitialValue.sol:deleteInitialValue",
								"label": "score",
								"offset": 0,
								"slot": "1",
								"type": "t_uint256"
							}
						],
						"numberOfBytes": "64"
					},
					"t_uint256": {
						"encoding": "inplace",
						"label": "uint256",
						"numberOfBytes": "32"
					}
				}
			},
			"userdoc": {
				"kind": "user",
				"methods": {},
				"version": 1
			}
		}
	}
}