{
	"First test/10-InsertionSort.sol": {
		"InsertionSort": {
			"abi": [
				{
					"inputs": [],
					"name": "forLoopTest",
					"outputs": [
						{
							"internalType": "uint256",
							"name": "",
							"type": "uint256"
						}
					],
					"stateMutability": "pure",
					"type": "function"
				},
				{
					"inputs": [
						{
							"internalType": "uint256",
							"name": "_number",
							"type": "uint256"
						}
					],
					"name": "ifElseTest",
					"outputs": [
						{
							"internalType": "bool",
							"name": "",
							"type": "bool"
						}
					],
					"stateMutability": "pure",
					"type": "function"
				}
			],
			"devdoc": {
				"kind": "dev",
				"methods": {},
				"version": 1
			},
			"evm": {
				"assembly": "    /* \"First test/10-InsertionSort.sol\":79:508  contract InsertionSort{... */\n  mstore(0x40, 0x80)\n  callvalue\n  dup1\n  iszero\n  tag_1\n  jumpi\n  0x00\n  dup1\n  revert\ntag_1:\n  pop\n  dataSize(sub_0)\n  dup1\n  dataOffset(sub_0)\n  0x00\n  codecopy\n  0x00\n  return\nstop\n\nsub_0: assembly {\n        /* \"First test/10-InsertionSort.sol\":79:508  contract InsertionSort{... */\n      mstore(0x40, 0x80)\n      callvalue\n      dup1\n      iszero\n      tag_1\n      jumpi\n      0x00\n      dup1\n      revert\n    tag_1:\n      pop\n      jumpi(tag_2, lt(calldatasize, 0x04))\n      shr(0xe0, calldataload(0x00))\n      dup1\n      0x7141fb00\n      eq\n      tag_3\n      jumpi\n      dup1\n      0xb0cfa9fc\n      eq\n      tag_4\n      jumpi\n    tag_2:\n      0x00\n      dup1\n      revert\n        /* \"First test/10-InsertionSort.sol\":123:304  function ifElseTest(uint256 _number) public pure returns(bool){... */\n    tag_3:\n      tag_5\n      0x04\n      dup1\n      calldatasize\n      sub\n      dup2\n      add\n      swap1\n      tag_6\n      swap2\n      swap1\n      tag_7\n      jump\t// in\n    tag_6:\n      tag_8\n      jump\t// in\n    tag_5:\n      mload(0x40)\n      tag_9\n      swap2\n      swap1\n      tag_10\n      jump\t// in\n    tag_9:\n      mload(0x40)\n      dup1\n      swap2\n      sub\n      swap1\n      return\n        /* \"First test/10-InsertionSort.sol\":327:505  function forLoopTest() public pure returns(uint256){... */\n    tag_4:\n      tag_11\n      tag_12\n      jump\t// in\n    tag_11:\n      mload(0x40)\n      tag_13\n      swap2\n      swap1\n      tag_14\n      jump\t// in\n    tag_13:\n      mload(0x40)\n      dup1\n      swap2\n      sub\n      swap1\n      return\n        /* \"First test/10-InsertionSort.sol\":123:304  function ifElseTest(uint256 _number) public pure returns(bool){... */\n    tag_8:\n        /* \"First test/10-InsertionSort.sol\":180:184  bool */\n      0x00\n        /* \"First test/10-InsertionSort.sol\":210:211  0 */\n      dup1\n        /* \"First test/10-InsertionSort.sol\":199:206  _number */\n      dup3\n        /* \"First test/10-InsertionSort.sol\":199:211  _number == 0 */\n      sub\n        /* \"First test/10-InsertionSort.sol\":196:297  if(_number == 0){... */\n      tag_16\n      jumpi\n        /* \"First test/10-InsertionSort.sol\":235:239  true */\n      0x01\n        /* \"First test/10-InsertionSort.sol\":227:240  return (true) */\n      swap1\n      pop\n      jump(tag_15)\n        /* \"First test/10-InsertionSort.sol\":196:297  if(_number == 0){... */\n    tag_16:\n        /* \"First test/10-InsertionSort.sol\":279:284  false */\n      0x00\n        /* \"First test/10-InsertionSort.sol\":272:285  return(false) */\n      swap1\n      pop\n        /* \"First test/10-InsertionSort.sol\":123:304  function ifElseTest(uint256 _number) public pure returns(bool){... */\n    tag_15:\n      swap2\n      swap1\n      pop\n      jump\t// out\n        /* \"First test/10-InsertionSort.sol\":327:505  function forLoopTest() public pure returns(uint256){... */\n    tag_12:\n        /* \"First test/10-InsertionSort.sol\":370:377  uint256 */\n      0x00\n        /* \"First test/10-InsertionSort.sol\":389:397  uint sum */\n      dup1\n        /* \"First test/10-InsertionSort.sol\":400:401  0 */\n      0x00\n        /* \"First test/10-InsertionSort.sol\":389:401  uint sum = 0 */\n      swap1\n      pop\n        /* \"First test/10-InsertionSort.sol\":417:423  uint i */\n      0x00\n        /* \"First test/10-InsertionSort.sol\":412:476  for (uint i = 0; i < 10; i++){... */\n    tag_19:\n        /* \"First test/10-InsertionSort.sol\":433:435  10 */\n      0x0a\n        /* \"First test/10-InsertionSort.sol\":429:430  i */\n      dup2\n        /* \"First test/10-InsertionSort.sol\":429:435  i < 10 */\n      lt\n        /* \"First test/10-InsertionSort.sol\":412:476  for (uint i = 0; i < 10; i++){... */\n      iszero\n      tag_20\n      jumpi\n        /* \"First test/10-InsertionSort.sol\":463:464  i */\n      dup1\n        /* \"First test/10-InsertionSort.sol\":456:464  sum += i */\n      dup3\n      tag_22\n      swap2\n      swap1\n      tag_23\n      jump\t// in\n    tag_22:\n      swap2\n      pop\n        /* \"First test/10-InsertionSort.sol\":437:440  i++ */\n      dup1\n      dup1\n      0x01\n      add\n      swap2\n      pop\n      pop\n        /* \"First test/10-InsertionSort.sol\":412:476  for (uint i = 0; i < 10; i++){... */\n      jump(tag_19)\n    tag_20:\n      pop\n        /* \"First test/10-InsertionSort.sol\":493:496  sum */\n      dup1\n        /* \"First test/10-InsertionSort.sol\":486:497  return(sum) */\n      swap2\n      pop\n      pop\n        /* \"First test/10-InsertionSort.sol\":327:505  function forLoopTest() public pure returns(uint256){... */\n      swap1\n      jump\t// out\n        /* \"#utility.yul\":88:205   */\n    tag_25:\n        /* \"#utility.yul\":197:198   */\n      0x00\n        /* \"#utility.yul\":194:195   */\n      dup1\n        /* \"#utility.yul\":187:199   */\n      revert\n        /* \"#utility.yul\":334:411   */\n    tag_27:\n        /* \"#utility.yul\":371:378   */\n      0x00\n        /* \"#utility.yul\":400:405   */\n      dup2\n        /* \"#utility.yul\":389:405   */\n      swap1\n      pop\n        /* \"#utility.yul\":334:411   */\n      swap2\n      swap1\n      pop\n      jump\t// out\n        /* \"#utility.yul\":417:539   */\n    tag_28:\n        /* \"#utility.yul\":490:514   */\n      tag_40\n        /* \"#utility.yul\":508:513   */\n      dup2\n        /* \"#utility.yul\":490:514   */\n      tag_27\n      jump\t// in\n    tag_40:\n        /* \"#utility.yul\":483:488   */\n      dup2\n        /* \"#utility.yul\":480:515   */\n      eq\n        /* \"#utility.yul\":470:533   */\n      tag_41\n      jumpi\n        /* \"#utility.yul\":529:530   */\n      0x00\n        /* \"#utility.yul\":526:527   */\n      dup1\n        /* \"#utility.yul\":519:531   */\n      revert\n        /* \"#utility.yul\":470:533   */\n    tag_41:\n        /* \"#utility.yul\":417:539   */\n      pop\n      jump\t// out\n        /* \"#utility.yul\":545:684   */\n    tag_29:\n        /* \"#utility.yul\":591:596   */\n      0x00\n        /* \"#utility.yul\":629:635   */\n      dup2\n        /* \"#utility.yul\":616:636   */\n      calldataload\n        /* \"#utility.yul\":607:636   */\n      swap1\n      pop\n        /* \"#utility.yul\":645:678   */\n      tag_43\n        /* \"#utility.yul\":672:677   */\n      dup2\n        /* \"#utility.yul\":645:678   */\n      tag_28\n      jump\t// in\n    tag_43:\n        /* \"#utility.yul\":545:684   */\n      swap3\n      swap2\n      pop\n      pop\n      jump\t// out\n        /* \"#utility.yul\":690:1019   */\n    tag_7:\n        /* \"#utility.yul\":749:755   */\n      0x00\n        /* \"#utility.yul\":798:800   */\n      0x20\n        /* \"#utility.yul\":786:795   */\n      dup3\n        /* \"#utility.yul\":777:784   */\n      dup5\n        /* \"#utility.yul\":773:796   */\n      sub\n        /* \"#utility.yul\":769:801   */\n      slt\n        /* \"#utility.yul\":766:885   */\n      iszero\n      tag_45\n      jumpi\n        /* \"#utility.yul\":804:883   */\n      tag_46\n      tag_25\n      jump\t// in\n    tag_46:\n        /* \"#utility.yul\":766:885   */\n    tag_45:\n        /* \"#utility.yul\":924:925   */\n      0x00\n        /* \"#utility.yul\":949:1002   */\n      tag_47\n        /* \"#utility.yul\":994:1001   */\n      dup5\n        /* \"#utility.yul\":985:991   */\n      dup3\n        /* \"#utility.yul\":974:983   */\n      dup6\n        /* \"#utility.yul\":970:992   */\n      add\n        /* \"#utility.yul\":949:1002   */\n      tag_29\n      jump\t// in\n    tag_47:\n        /* \"#utility.yul\":939:1002   */\n      swap2\n      pop\n        /* \"#utility.yul\":895:1012   */\n      pop\n        /* \"#utility.yul\":690:1019   */\n      swap3\n      swap2\n      pop\n      pop\n      jump\t// out\n        /* \"#utility.yul\":1025:1115   */\n    tag_30:\n        /* \"#utility.yul\":1059:1066   */\n      0x00\n        /* \"#utility.yul\":1102:1107   */\n      dup2\n        /* \"#utility.yul\":1095:1108   */\n      iszero\n        /* \"#utility.yul\":1088:1109   */\n      iszero\n        /* \"#utility.yul\":1077:1109   */\n      swap1\n      pop\n        /* \"#utility.yul\":1025:1115   */\n      swap2\n      swap1\n      pop\n      jump\t// out\n        /* \"#utility.yul\":1121:1230   */\n    tag_31:\n        /* \"#utility.yul\":1202:1223   */\n      tag_50\n        /* \"#utility.yul\":1217:1222   */\n      dup2\n        /* \"#utility.yul\":1202:1223   */\n      tag_30\n      jump\t// in\n    tag_50:\n        /* \"#utility.yul\":1197:1200   */\n      dup3\n        /* \"#utility.yul\":1190:1224   */\n      mstore\n        /* \"#utility.yul\":1121:1230   */\n      pop\n      pop\n      jump\t// out\n        /* \"#utility.yul\":1236:1446   */\n    tag_10:\n        /* \"#utility.yul\":1323:1327   */\n      0x00\n        /* \"#utility.yul\":1361:1363   */\n      0x20\n        /* \"#utility.yul\":1350:1359   */\n      dup3\n        /* \"#utility.yul\":1346:1364   */\n      add\n        /* \"#utility.yul\":1338:1364   */\n      swap1\n      pop\n        /* \"#utility.yul\":1374:1439   */\n      tag_52\n        /* \"#utility.yul\":1436:1437   */\n      0x00\n        /* \"#utility.yul\":1425:1434   */\n      dup4\n        /* \"#utility.yul\":1421:1438   */\n      add\n        /* \"#utility.yul\":1412:1418   */\n      dup5\n        /* \"#utility.yul\":1374:1439   */\n      tag_31\n      jump\t// in\n    tag_52:\n        /* \"#utility.yul\":1236:1446   */\n      swap3\n      swap2\n      pop\n      pop\n      jump\t// out\n        /* \"#utility.yul\":1452:1570   */\n    tag_32:\n        /* \"#utility.yul\":1539:1563   */\n      tag_54\n        /* \"#utility.yul\":1557:1562   */\n      dup2\n        /* \"#utility.yul\":1539:1563   */\n      tag_27\n      jump\t// in\n    tag_54:\n        /* \"#utility.yul\":1534:1537   */\n      dup3\n        /* \"#utility.yul\":1527:1564   */\n      mstore\n        /* \"#utility.yul\":1452:1570   */\n      pop\n      pop\n      jump\t// out\n        /* \"#utility.yul\":1576:1798   */\n    tag_14:\n        /* \"#utility.yul\":1669:1673   */\n      0x00\n        /* \"#utility.yul\":1707:1709   */\n      0x20\n        /* \"#utility.yul\":1696:1705   */\n      dup3\n        /* \"#utility.yul\":1692:1710   */\n      add\n        /* \"#utility.yul\":1684:1710   */\n      swap1\n      pop\n        /* \"#utility.yul\":1720:1791   */\n      tag_56\n        /* \"#utility.yul\":1788:1789   */\n      0x00\n        /* \"#utility.yul\":1777:1786   */\n      dup4\n        /* \"#utility.yul\":1773:1790   */\n      add\n        /* \"#utility.yul\":1764:1770   */\n      dup5\n        /* \"#utility.yul\":1720:1791   */\n      tag_32\n      jump\t// in\n    tag_56:\n        /* \"#utility.yul\":1576:1798   */\n      swap3\n      swap2\n      pop\n      pop\n      jump\t// out\n        /* \"#utility.yul\":1804:1984   */\n    tag_33:\n        /* \"#utility.yul\":1852:1929   */\n      0x4e487b7100000000000000000000000000000000000000000000000000000000\n        /* \"#utility.yul\":1849:1850   */\n      0x00\n        /* \"#utility.yul\":1842:1930   */\n      mstore\n        /* \"#utility.yul\":1949:1953   */\n      0x11\n        /* \"#utility.yul\":1946:1947   */\n      0x04\n        /* \"#utility.yul\":1939:1954   */\n      mstore\n        /* \"#utility.yul\":1973:1977   */\n      0x24\n        /* \"#utility.yul\":1970:1971   */\n      0x00\n        /* \"#utility.yul\":1963:1978   */\n      revert\n        /* \"#utility.yul\":1990:2181   */\n    tag_23:\n        /* \"#utility.yul\":2030:2033   */\n      0x00\n        /* \"#utility.yul\":2049:2069   */\n      tag_59\n        /* \"#utility.yul\":2067:2068   */\n      dup3\n        /* \"#utility.yul\":2049:2069   */\n      tag_27\n      jump\t// in\n    tag_59:\n        /* \"#utility.yul\":2044:2069   */\n      swap2\n      pop\n        /* \"#utility.yul\":2083:2103   */\n      tag_60\n        /* \"#utility.yul\":2101:2102   */\n      dup4\n        /* \"#utility.yul\":2083:2103   */\n      tag_27\n      jump\t// in\n    tag_60:\n        /* \"#utility.yul\":2078:2103   */\n      swap3\n      pop\n        /* \"#utility.yul\":2126:2127   */\n      dup3\n        /* \"#utility.yul\":2123:2124   */\n      dup3\n        /* \"#utility.yul\":2119:2128   */\n      add\n        /* \"#utility.yul\":2112:2128   */\n      swap1\n      pop\n        /* \"#utility.yul\":2147:2150   */\n      dup1\n        /* \"#utility.yul\":2144:2145   */\n      dup3\n        /* \"#utility.yul\":2141:2151   */\n      gt\n        /* \"#utility.yul\":2138:2174   */\n      iszero\n      tag_61\n      jumpi\n        /* \"#utility.yul\":2154:2172   */\n      tag_62\n      tag_33\n      jump\t// in\n    tag_62:\n        /* \"#utility.yul\":2138:2174   */\n    tag_61:\n        /* \"#utility.yul\":1990:2181   */\n      swap3\n      swap2\n      pop\n      pop\n      jump\t// out\n\n    auxdata: 0xa2646970667358221220629270fc4330b9f095416ccdc2855ac6132810817a60898c75ef2c53dc43a1b564736f6c634300081a0033\n}\n",
				"bytecode": {
					"linkReferences": {},
					"object": "6080604052348015600e575f80fd5b506102268061001c5f395ff3fe608060405234801561000f575f80fd5b5060043610610034575f3560e01c80637141fb0014610038578063b0cfa9fc14610068575b5f80fd5b610052600480360381019061004d919061010a565b610086565b60405161005f919061014f565b60405180910390f35b6100706100a0565b60405161007d9190610177565b60405180910390f35b5f808203610097576001905061009b565b5f90505b919050565b5f805f90505f5b600a8110156100cb5780826100bc91906101bd565b915080806001019150506100a7565b508091505090565b5f80fd5b5f819050919050565b6100e9816100d7565b81146100f3575f80fd5b50565b5f81359050610104816100e0565b92915050565b5f6020828403121561011f5761011e6100d3565b5b5f61012c848285016100f6565b91505092915050565b5f8115159050919050565b61014981610135565b82525050565b5f6020820190506101625f830184610140565b92915050565b610171816100d7565b82525050565b5f60208201905061018a5f830184610168565b92915050565b7f4e487b71000000000000000000000000000000000000000000000000000000005f52601160045260245ffd5b5f6101c7826100d7565b91506101d2836100d7565b92508282019050808211156101ea576101e9610190565b5b9291505056fea2646970667358221220629270fc4330b9f095416ccdc2855ac6132810817a60898c75ef2c53dc43a1b564736f6c634300081a0033",
					"opcodes": "PUSH1 0x80 PUSH1 0x40 MSTORE CALLVALUE DUP1 ISZERO PUSH1 0xE JUMPI PUSH0 DUP1 REVERT JUMPDEST POP PUSH2 0x226 DUP1 PUSH2 0x1C PUSH0 CODECOPY PUSH0 RETURN INVALID PUSH1 0x80 PUSH1 0x40 MSTORE CALLVALUE DUP1 ISZERO PUSH2 0xF JUMPI PUSH0 DUP1 REVERT JUMPDEST POP PUSH1 0x4 CALLDATASIZE LT PUSH2 0x34 JUMPI PUSH0 CALLDATALOAD PUSH1 0xE0 SHR DUP1 PUSH4 0x7141FB00 EQ PUSH2 0x38 JUMPI DUP1 PUSH4 0xB0CFA9FC EQ PUSH2 0x68 JUMPI JUMPDEST PUSH0 DUP1 REVERT JUMPDEST PUSH2 0x52 PUSH1 0x4 DUP1 CALLDATASIZE SUB DUP2 ADD SWAP1 PUSH2 0x4D SWAP2 SWAP1 PUSH2 0x10A JUMP JUMPDEST PUSH2 0x86 JUMP JUMPDEST PUSH1 0x40 MLOAD PUSH2 0x5F SWAP2 SWAP1 PUSH2 0x14F JUMP JUMPDEST PUSH1 0x40 MLOAD DUP1 SWAP2 SUB SWAP1 RETURN JUMPDEST PUSH2 0x70 PUSH2 0xA0 JUMP JUMPDEST PUSH1 0x40 MLOAD PUSH2 0x7D SWAP2 SWAP1 PUSH2 0x177 JUMP JUMPDEST PUSH1 0x40 MLOAD DUP1 SWAP2 SUB SWAP1 RETURN JUMPDEST PUSH0 DUP1 DUP3 SUB PUSH2 0x97 JUMPI PUSH1 0x1 SWAP1 POP PUSH2 0x9B JUMP JUMPDEST PUSH0 SWAP1 POP JUMPDEST SWAP2 SWAP1 POP JUMP JUMPDEST PUSH0 DUP1 PUSH0 SWAP1 POP PUSH0 JUMPDEST PUSH1 0xA DUP2 LT ISZERO PUSH2 0xCB JUMPI DUP1 DUP3 PUSH2 0xBC SWAP2 SWAP1 PUSH2 0x1BD JUMP JUMPDEST SWAP2 POP DUP1 DUP1 PUSH1 0x1 ADD SWAP2 POP POP PUSH2 0xA7 JUMP JUMPDEST POP DUP1 SWAP2 POP POP SWAP1 JUMP JUMPDEST PUSH0 DUP1 REVERT JUMPDEST PUSH0 DUP2 SWAP1 POP SWAP2 SWAP1 POP JUMP JUMPDEST PUSH2 0xE9 DUP2 PUSH2 0xD7 JUMP JUMPDEST DUP2 EQ PUSH2 0xF3 JUMPI PUSH0 DUP1 REVERT JUMPDEST POP JUMP JUMPDEST PUSH0 DUP2 CALLDATALOAD SWAP1 POP PUSH2 0x104 DUP2 PUSH2 0xE0 JUMP JUMPDEST SWAP3 SWAP2 POP POP JUMP JUMPDEST PUSH0 PUSH1 0x20 DUP3 DUP5 SUB SLT ISZERO PUSH2 0x11F JUMPI PUSH2 0x11E PUSH2 0xD3 JUMP JUMPDEST JUMPDEST PUSH0 PUSH2 0x12C DUP5 DUP3 DUP6 ADD PUSH2 0xF6 JUMP JUMPDEST SWAP2 POP POP SWAP3 SWAP2 POP POP JUMP JUMPDEST PUSH0 DUP2 ISZERO ISZERO SWAP1 POP SWAP2 SWAP1 POP JUMP JUMPDEST PUSH2 0x149 DUP2 PUSH2 0x135 JUMP JUMPDEST DUP3 MSTORE POP POP JUMP JUMPDEST PUSH0 PUSH1 0x20 DUP3 ADD SWAP1 POP PUSH2 0x162 PUSH0 DUP4 ADD DUP5 PUSH2 0x140 JUMP JUMPDEST SWAP3 SWAP2 POP POP JUMP JUMPDEST PUSH2 0x171 DUP2 PUSH2 0xD7 JUMP JUMPDEST DUP3 MSTORE POP POP JUMP JUMPDEST PUSH0 PUSH1 0x20 DUP3 ADD SWAP1 POP PUSH2 0x18A PUSH0 DUP4 ADD DUP5 PUSH2 0x168 JUMP JUMPDEST SWAP3 SWAP2 POP POP JUMP JUMPDEST PUSH32 0x4E487B7100000000000000000000000000000000000000000000000000000000 PUSH0 MSTORE PUSH1 0x11 PUSH1 0x4 MSTORE PUSH1 0x24 PUSH0 REVERT JUMPDEST PUSH0 PUSH2 0x1C7 DUP3 PUSH2 0xD7 JUMP JUMPDEST SWAP2 POP PUSH2 0x1D2 DUP4 PUSH2 0xD7 JUMP JUMPDEST SWAP3 POP DUP3 DUP3 ADD SWAP1 POP DUP1 DUP3 GT ISZERO PUSH2 0x1EA JUMPI PUSH2 0x1E9 PUSH2 0x190 JUMP JUMPDEST JUMPDEST SWAP3 SWAP2 POP POP JUMP INVALID LOG2 PUSH5 0x6970667358 0x22 SLT KECCAK256 PUSH3 0x9270FC NUMBER ADDRESS 0xB9 CREATE SWAP6 COINBASE PUSH13 0xCDC2855AC6132810817A60898C PUSH22 0xEF2C53DC43A1B564736F6C634300081A003300000000 "
				},
				"gasEstimates": {
					"creation": {
						"codeDepositCost": "110000",
						"executionCost": "157",
						"totalCost": "110157"
					},
					"external": {
						"forLoopTest()": "infinite",
						"ifElseTest(uint256)": "611"
					}
				},
				"methodIdentifiers": {
					"forLoopTest()": "b0cfa9fc",
					"ifElseTest(uint256)": "7141fb00"
				}
			},
			"storageLayout": {
				"storage": [],
				"types": null
			},
			"userdoc": {
				"kind": "user",
				"methods": {},
				"version": 1
			}
		}
	}
}